:100000000C94B1000C94CE000C94CE000C94CE0055
:100010000C94CE000C94CE000C94CE000C94CE0028
:100020000C94CE000C94CE000C94CE000C94CE0018
:100030000C94CE000C94CE000C94CE000C94CE0008
:100040000C94CE000C94CE000C94CE000C94CE00F8
:100050000C94CE000C94CE000C94CE000C94CE00E8
:100060000C94CE000C94CE0000407A10F35A00A0FD
:10007000724E18090010A5D4E80000E87648170071
:1000800000E40B54020000CA9A3B000000E1F505B1
:10009000000080969800000040420F000000A086FB
:1000A00001000000102700000000E803000000002D
:1000B0006400000000000A000000000001000000D1
:1000C00000002C76D888DC674F0823DFC1DFAE59EB
:1000D000E1B1B796E5E3E453C63AE651997696E87E
:1000E000E6C28426EB898C9B62ED407C6FFCEFBC02
:1000F0009C9F40F2BAA56FA5F490055A2AF75C932D
:100100006B6CF9676DC11BFCE0E40D47FEF520E662
:10011000B500D0ED902E0300943577050080841E45
:10012000080000204E0A000000C80C333333330FA0
:10013000986E12831141EF8D2114893BE65516CF3D
:10014000FEE6DB18D1844B381BF77C1D901DA4BB49
:10015000E424203284725E228100C9F124ECA1E5FE
:100160003D2711241FBECFEFD8E0DEBFCDBF14E086
:10017000A0E0B1E0E0E9F4E202C005900D92AA32FD
:10018000B107D9F714E0AAE2B4E001C01D92AD3284
:10019000B107E1F70E9446020C9446120C9400004D
:1001A00088E08093C10086E08093C20087E6809358
:1001B000C4000895982F8091C00085FFFCCF9093D4
:1001C000C600089583EA84BD95E095BD83E28093DF
:1001D000B0009093B10016BC08952F923F924F92B9
:1001E0005F926F927F928F929F92AF92BF92CF92C7
:1001F000DF92EF92FF920F931F93DF93CF93CDB7D0
:10020000DEB72A970FB6F894DEBF0FBECDBF2C0124
:100210009A8389831C821B821E821D8241E0642E88
:10022000712C8824992422243324CB01AA2797FDFA
:10023000A095BA2F8F839887A987BA8794C0F401B5
:10024000EE0FFF1FA1E0B0E0AC0FBD1FEA0FFB1FD8
:100250008081918197FF0BC0118210820894811CCC
:10026000911CB3E08B16910414F088249924F301B7
:10027000EE0FFF1F81E090E08C0F9D1FE80FF91F2C
:1002800080819181481659065CF45182408208941D
:10029000611C711C93E06916710411F466247724C3
:1002A0008D8187BD8B8188BD89818093B400F401E5
:1002B000EE0FFF1FA1E0B0E0AC0FBD1FEA0FFB1F68
:1002C00080819181029791838083F301EE0FFF1F5C
:1002D000EA0FFB1F808191810296918380836F8159
:1002E000788589859A850E942C0C5B016C0120E041
:1002F00030E04AE755E40E94F6097B018C0120E0DA
:1003000030E040E85FE30E94FC0B88231CF461E0CE
:1003100070E023C0C801B70120E03FEF4FE757E48A
:100320000E949C0B1816ACF4C601B50120E030E029
:1003300040E251E40E94F6090E94200806C080E9CC
:1003400091E00197F1F76150704061157105B9F7BF
:1003500007C0C801B7010E942008CB010197F1F73F
:100360000894211C311C241435040CF468CF2A96FF
:100370000FB6F894DEBF0FBECDBFCF91DF911F91B6
:100380000F91FF90EF90DF90CF90BF90AF909F9034
:100390008F907F906F905F904F903F902F90089537
:1003A0009C01DC010D900020E9F71197A81BB90B07
:1003B00090E00AC0E20FF31F40818091C00085FFEA
:1003C000FCCF4093C6009F5FE92FF0E0EA17FB07E0
:1003D00088F30895AF92BF92CF92DF92EF92FF928F
:1003E0000F931F93DF93CF93CDB7DEB72A970FB646
:1003F000F894DEBF0FBECDBF5B016C0180E091E0E1
:100400000E94D001C601B50143E020E07E010894BE
:10041000E11CF11C87010E94EB0FC7010E94D00173
:1004200080E191E00E94D001C601B5012CE53FE8D2
:1004300042E250E40E94F00A43E020E00E94EB0F09
:10044000C7010E94D00186E191E00E94D001809115
:10045000C00085FFFCCF8DE08093C6008091C00076
:1004600085FFFCCF8AE08093C6002A960FB6F894E9
:10047000DEBF0FBECDBFCF91DF911F910F91FF90D7
:10048000EF90DF90CF90BF90AF9008959F92AF9282
:10049000BF92CF92DF92EF92FF920F931F93DF9361
:1004A000CF93CDB7DEB72A970FB6F894DEBF0FBE55
:1004B000CDBF88E08093C10086E08093C20087E6CC
:1004C0008093C40083EA84BD95E095BD83E2809368
:1004D000B0009093B10016BC0E942D0782E084B951
:1004E00088E68AB9299855E3952E5E010894A11CE7
:1004F000B11C16BC299A892D8A95F1F72998189B69
:10050000FECF86B51899FECF66B5861790F4681BA6
:1005100070E0882777FD8095982F0E942C0C24E4AA
:100520003BE84CE85FE30E94F6096B017C010E9406
:10053000EA01C701B60120E030E040EA50E40E9441
:10054000FC0B88235CF40F2EF0E0CF2EF0E0DF2EC2
:10055000F0EAEF2EF0E4FF2EF02D14C0C701B60133
:1005600020E030E048E453E40E949C0B181654F459
:100570000F2EF0E0CF2EF0E0DF2EF8E4EF2EF3E4C4
:10058000FF2EF02D60E070E088E493E4A70196016F
:100590000E9498090E948A0C8B019C0188EC90E0D3
:1005A000B8010E946B0FC8010E94ED0080E00E941C
:1005B00023058CE191E00E94870481E00E942305DD
:1005C000C701B6014DEF20E085010E94EB0FC50188
:1005D0000E94870483E00E94230580E391E00E944B
:1005E000870484E00E942305C701B6012CE53FE89B
:1005F00042E250E40E94F00A4DEF20E00E94EB0F2F
:10060000C5010E94870475CF0E94CB0708950E9400
:10061000160808951F93182F80E00E948907812FE4
:100620000E94A2071F9108951F93182F8CE30E9428
:100630000A0380E00E94CB07812F0E94CB070E9413
:1006400016081F9108951F93182F81E80E94140324
:10065000812F0E9414031F91089586EA0E941403BB
:10066000089587EA0E94140308950F931F93082F9B
:10067000162F8830F0F467FD1CC080932B04609324
:100680002C0481E20E941403812F0E9414038FE73F
:100690000E94140382E20E941403802F0E9414031C
:1006A00087E00E9414038CE30E940A0380E40E9406
:1006B000CB071F910F91089580912B048F5F877056
:1006C00080932B0460E00E94350308950F931F93DD
:1006D000CF93DF93182F80912C0490E08B379105F6
:1006E00014F41A3021F40E945C031A3041F1812F76
:1006F000805225E0829F800111240A5B1E4F90E00A
:100700000196EC01CC0FDD1FCC0FDD1FC80FD91FE8
:10071000CA5BDE4FF80181918F010E94CB07809167
:100720002C048F5F80932C040C171D0799F780E031
:100730000E94CB0780912C048F5F80932C04DF9163
:10074000CF911F910F9108954F925F926F927F9278
:100750008F929F92AF92BF92CF92DF92EF92FF92D1
:100760000F931F93DF93CF93CDB7DEB72C970FB6C0
:10077000F894DEBF0FBECDBF5A016B01E22E82306E
:1007800021F51EC020E08E2D90E00197A80102C047
:10079000440F551F8A95E2F7CA01AA2797FDA09535
:1007A000BA2F8A219B21AC21BD210097A105B1055B
:1007B00009F021E0822F805D0E946603EA9402C066
:1007C00001E010E0EE20F1F653C04115510561053E
:1007D000710551F010E02E010894411C511C682E47
:1007E00077248824992433C000E004C080E30E9469
:1007F00066030F5F0E15E0F50A30C1F739C0A1148A
:10080000B104C104D104D9F0FA2CC601B501A40188
:1008100093010E947E0FC901DA015C016D01C201E2
:10082000810F911D9C878B87C601B501A40193019F
:100830000E944C0FF61AEB85FC85F08207C0FAE0A7
:10084000FE15A0F0F201E10FF11D10821F5F1E15D1
:10085000B0F20CC0FE01E10FF11D80818A3010F072
:10086000895C01C0805D0E9466031150112391F7DD
:100870002C960FB6F894DEBF0FBECDBFCF91DF919F
:100880001F910F91FF90EF90DF90CF90BF90AF90AE
:100890009F908F907F906F905F904F900895AF9250
:1008A000BF92CF92DF92EF92FF920F931F935B0163
:1008B0006C010E9420087B018C018AE0B801A7012D
:1008C0002FEF0E94A4038EE20E946603C801B701C5
:1008D0000E94DE0C9B01AC01C601B5010E94980983
:1008E00020E034E244E759E40E94F6090E9420081F
:1008F000AB01BC018AE02FEF0E94A4031F910F916E
:10090000FF90EF90DF90CF90BF90AF900895CF937E
:10091000DF93EC0103C021960E946603888188233F
:10092000D1F7DF91CF910895FF920F931F93F62E89
:10093000853030F594E6961718F1082F000F0F5FF9
:10094000802F60E00E94350310E004C08FEF0E940A
:10095000CB071F5F1F15D0F31F2D04C080E00E943E
:10096000CB071F5F1436D0F3802F69E60E94350352
:100970004F2D50E060E070E08AE023E00E94A40385
:100980001F910F91FF900895CF92DF92EF92FF9207
:100990000F931F93062F853008F04EC0653608F080
:1009A0004BC0182F1295110F107E185F80E0612F39
:1009B0000E943503402F50E060E070E08AE023E0C1
:1009C0000E94A403402F4695242F26952695269510
:1009D00067E0E62EE21A822F90E053E0880F991F1D
:1009E0005A95E1F7481B28E030E0241B31098FEFCE
:1009F00090E002C0880F991F2A95E2F7C82EFF24C5
:100A0000F39434E0D32ED10E8F2D6D2D0E9435033B
:100A1000FE1410F400E005C0FE1411F00FEF01C049
:100A20000C2D10E0802F0E94CB071F5F1C30D1F7E8
:100A3000F39488E0F81641F71F910F91FF90EF9023
:100A4000DF90CF900895883028F480932B0460E0E5
:100A50000E94350308953F924F925F926F927F926A
:100A60008F929F92AF92BF92CF92DF92EF92FF92BE
:100A70000F931F93CF93DF93B82E4B0187E08B1515
:100A800008F4BB24CC24B5E03B2EA5E3AA2EF0E964
:100A90004F2EF1E05F2E44C0E6E0EE2E39018B2DA3
:100AA0006E2D0E943503FE2CDD2425C08052839DCF
:100AB000800111240A5B1E4F90E00196EC01CC0FDF
:100AC000DD1FCC0FDD1FC80FD91FCA5BDE4F09C069
:100AD000F80181918F010E94CB07F3940C171D0739
:100AE00011F0F7FEF5CF80E00E94CB078A2D8A95A2
:100AF000F1F7F394D394F401ED0DF11DE60DF71D1C
:100B00008081882311F0F7FED1CF88EC90E0F201CC
:100B10003197F1F70197D9F7EA9409F0C0CFC39460
:100B20002C2D30E0F401E20FF31F8081882309F0BF
:100B3000B3CFDF91CF911F910F91FF90EF90DF9096
:100B4000CF90BF90AF909F908F907F906F905F906D
:100B50004F903F9008950F931F93CF93DF938C0195
:100B600080E060E00E9435038CE30E940A0380E489
:100B70000E94CB07C0E0D0E0F801EC0FFD1F8081A0
:100B80000E94CB07219684E0C030D807A9F7DF91F7
:100B9000CF911F910F910895CF93DF9381E20E942F
:100BA000140380E00E9414038FE70E94140382E282
:100BB0000E94140380E00E94140387E00E94140343
:100BC0008CE30E940A0380E40E94CB07C0E0D0E0DF
:100BD00080E00E94CB07219684E0C030D807C1F79F
:100BE00081E20E94140380E00E9414038FE70E94B8
:100BF000140382E20E94140380E00E94140387E041
:100C00000E9414038CE30E940A0380E40E94CB0735
:100C1000DF91CF9108958F929F92AF92BF92CF9222
:100C2000DF92EF92FF920F931F93DF93CF93CDB795
:100C3000DEB731E1E32EF12CEC0EFD1E8F85988995
:100C40009C0159012AE0C22EF6C0853209F0EEC09F
:100C50000894A11CB11CF5019081892F80538A3022
:100C600018F0DD24DA940FC0DD2409C0DC9CD02C00
:100C70001124D80E0894A11CB11CF5019081892F74
:100C800080538A3098F3983509F48BC09935C4F4B1
:100C9000943409F44BC095344CF4923409F49DC05B
:100CA00093342CF5953209F0C3C0BFC0933509F4D5
:100CB000B2C0953509F462C0963409F0B9C0A0C03D
:100CC000963609F49DC0973644F4933681F09436F5
:100CD000B1F0923609F0ACC071C0953709F445C047
:100CE000983709F455C0933709F0A2C094C0870122
:100CF0000E5F1F4FF70180810E94660394C092E04F
:100D0000892E912C8E0C9F1CF7010081118117FFF9
:100D100006C0109501951F4F8DE20E946603A80141
:100D2000662757FD6095762F8AE01AC084E0882EEA
:100D3000912C8E0C9F1CF701E080F18002811381C1
:100D400017FF0BC010950095F094E094E11CF11C86
:100D5000011D111D8DE20E9466038AE0B801A70102
:100D60002D2D0E94A403740163C087010E5F1F4FE5
:100D7000F7014081518160E070E008C087010C5F9D
:100D80001F4FF70140815181628173818AE012C057
:100D900087010E5F1F4FF7014081518160E070E0D5
:100DA00008C087010C5F1F4FF701408151816281AC
:100DB000738180E12D2D0E94A40335C0F70140818D
:100DC0005181FFEFDF1611F400E1D02E82E090E0B8
:100DD000E80EF91E60E070E00EC0F701408151811D
:100DE00062817381FFEFDF1611F410E1D12E84E0F0
:100DF00090E0E80EF91E82E02D2D0E94A40318C099
:100E000087010C5F1F4FF70160817181828193819F
:100E10000E944F0408C087010E5F1F4FF7018081B9
:100E200091810E948704780103C085E20E946603D5
:100E30000894A11CB11CF5018081882309F005CF1D
:100E4000CF91DF911F910F91FF90EF90DF90CF90A6
:100E5000BF90AF909F908F9008950E947D078EEA7B
:100E60000E94140385ED0E94140380E80E9414037D
:100E700088EA0E9414038FE30E94140383ED0E940A
:100E8000140380E00E94140380E40E9414038DE8A0
:100E90000E94140384E10E94140380E20E94140360
:100EA00080E00E94140381EA0E94140388EC0E94EF
:100EB00014038AED0E94140382E10E94140381E866
:100EC0000E9414038FEC0E94140389ED0E94140306
:100ED00081EF0E9414038BED0E94140380E40E94B2
:100EE000140384EA0E94140386EA0E9414038FEA22
:100EF0000E9414030E94CC050895E9EBF0E0808184
:100F00008260808380818E7F808383E18093B800BC
:100F1000089580932A048091BC00846A8093BC0069
:100F20008091BC0087FFFCCF8091B90090E0887F62
:100F300090708830910521F0409711F08EEF089560
:100F40008FEF089590912A04880F892B8093BB001E
:100F50008091BC008F7D8093BC008091BC00806834
:100F60008093BC008091BC0087FFFCCF992331F4B3
:100F70008091B900887F883151F40BC0913011F015
:100F800080E008958091B900887F803411F08EEF61
:100F900008958FEF08958093BB008091BC00806816
:100FA0008093BC008091BC0087FFFCCF8091B9008A
:100FB000887F883211F08EEF08958FEF089592E3C5
:100FC00006C08091BC0087FF02C08DEF089591504C
:100FD000C0F78CEF0895882321F48091BC008064D1
:100FE00003C08091BC008F7B8093BC008091BC00CB
:100FF00080688093BC0092E304C08091BC0087FDB0
:1010000002C09150D0F78091B90090E0887F907035
:101010008035910529F08835910529F08EEF0895E6
:101020008091BB0008958091BB0008958091BC0021
:1010300080698093BC008091BC0084FFFCCF089540
:10104000EF92FF920F931F937B018C0120E030E021
:1010500040E05FE40E94CC0B88238CF0C801B7010C
:1010600020E030E040E05FE40E9498090E948A0C92
:101070009B01AC01205030404040504806C0C801A0
:10108000B7010E948A0C9B01AC01B901CA011F91F2
:101090000F91FF90EF900895A0E0B0E0E2E5F8E056
:1010A0000C94B40FDC012B01FA019C91923008F4EE
:1010B00039C1EB018881823008F433C1943069F47E
:1010C000843009F02FC111969C911197898198174E
:1010D00009F428C1A1E2B3E025C1843009F421C19B
:1010E0008230A9F4923009F01DC19A01AD0188E067
:1010F000EA010990AE01E90109929E018150C1F710
:10110000E201898111969C918923818308C19230E3
:1011100009F407C112962D903C901397EB018A8138
:101120009B811496AD90BD90CD90DC901797EC808C
:10113000FD800E811F819101281B390BB90137FFFA
:1011400004C066277727621B730B603271050CF0B1
:1011500061C0121613066CF537014801062E04C053
:1011600096948794779467940A94D2F721E030E0BC
:1011700040E050E004C0220F331F441F551F6A9502
:10118000D2F721503040404050402E213F21402393
:101190005123211531054105510521F021E030E0B1
:1011A00040E050E079018A01E628F728082919294A
:1011B0003CC0232BD1F1260E371E35014601062EE9
:1011C00004C096948794779467940A94D2F721E0A8
:1011D00030E040E050E004C0220F331F441F551F91
:1011E0006A95D2F721503040404050402A213B219F
:1011F0004C215D21211531054105510521F021E0EA
:1012000030E040E050E059016A01A628B728C8281C
:10121000D9280BC0821593052CF01C01AA24BB24ED
:10122000650103C0EE24FF24870111969C91D20131
:1012300011968C91981709F445C0992339F0A801AB
:1012400097012A193B094C095D0906C0A6019501C1
:101250002E193F09400B510B57FD08C011823382F4
:10126000228224833583468357831DC081E0818396
:101270003382228288279927DC01821B930BA40BDF
:10128000B50B84839583A683B7830DC0220F331FCC
:10129000441F551F2483358346835783828193815E
:1012A0000197938382832481358146815781DA01B6
:1012B000C9010197A109B1098F5F9F4FAF4FBF438C
:1012C00028F30BC0918333822282EA0CFB1C0C1D95
:1012D0001D1DE482F5820683178383E080832481C9
:1012E00035814681578157FF1AC0C901AA2797FD4A
:1012F000A095BA2F81709070A070B07056954795E8
:1013000037952795822B932BA42BB52B848395831C
:10131000A683B78382819381019693838283DF01C1
:1013200001C0D201CD01CDB7DEB7E2E10C94D00F00
:10133000A0E2B0E0EEE9F9E00C94C00F69837A8393
:101340008B839C832D833E834F835887E9E0EE2E69
:10135000F12CEC0EFD1ECE010196B7010E947B0E12
:101360008E010F5E1F4FCE010596B8010E947B0EC5
:101370008A8991E089278A8BC701B801AE01475E4F
:101380005F4F0E944C080E94A60DA096E6E00C94C8
:10139000DC0FA0E2B0E0EFECF9E00C94C00F698341
:1013A0007A838B839C832D833E834F835887F9E018
:1013B000EF2EF12CEC0EFD1ECE010196B7010E941E
:1013C0007B0E8E010F5E1F4FCE010596B8010E9465
:1013D0007B0EC701B801AE01475E5F4F0E944C080B
:1013E0000E94A60DA096E6E00C94DC0FA0E2B0E00F
:1013F000ECEFF9E00C94B40F69837A838B839C83C0
:101400002D833E834F835887CE010196BE01675FCF
:101410007F4F0E947B0ECE010596BE016F5E7F4F0F
:101420000E947B0E9985923088F089898230C8F0BD
:10143000943019F4823051F404C0843029F492308D
:1014400081F481E293E0C6C0923049F420E09A85AD
:101450008A89981321E02A87CE010996BBC0823081
:1014600049F420E09A858A89981321E02A8BCE01DD
:101470004196B0C02D843E844F8458886D887E8804
:101480008F88988CEE24FF248701AA24BB24650151
:1014900040E050E060E070E0E0E0F0E0C101817029
:1014A0009070892BE9F0E60CF71C081D191D9A01B4
:1014B000AB012A0D3B1D4C1D5D1D80E090E0A0E0BE
:1014C000B0E0E614F7040805190520F481E090E087
:1014D000A0E0B0E0BA01A901480F591F6A1F7B1FA5
:1014E000AA0CBB1CCC1CDD1C97FE08C081E090E060
:1014F000A0E0B0E0A82AB92ACA2ADB2A3196E03255
:10150000F10549F0660C771C881C991C5694479489
:1015100037942794C3CFFA85EA892B893C898B8538
:101520009C85280F391F2E5F3F4F17C0CA0181705D
:101530009070892B61F016950795F794E79480E0F9
:1015400090E0A0E0B0E8E82AF92A0A2B1B2B769558
:101550006795579547952F5F3F4F77FDE7CF0CC0B5
:10156000440F551F661F771F17FD4160EE0CFF1CCF
:10157000001F111F21503040403090E0590790E08B
:10158000690790E4790760F32B8F3C8FDB01CA0178
:101590008F779070A070B07080349105A105B1056F
:1015A00061F447FD0AC0E114F1040105110529F0B9
:1015B000405C5F4F6F4F7F4F40781A8EFE1711F0DF
:1015C00081E08A8F4D8F5E8F6F8F78A383E0898F44
:1015D000CE0149960E94A60DA096E2E10C94D00F90
:1015E000A8E1B0E0E6EFFAE00C94BC0F69837A83DF
:1015F0008B839C832D833E834F835887B9E0EB2EEA
:10160000F12CEC0EFD1ECE010196B7010E947B0E5F
:101610008E010F5E1F4FCE010596B8010E947B0E12
:101620002985223008F47EC03989323010F4B8019F
:101630007CC08A859A8989278A87243011F02230D4
:1016400031F4231709F06EC061E273E06EC03430EC
:1016500039F41D861E861F86188A1C861B8604C0C8
:10166000323021F484E08987B7015FC02B853C8547
:101670008B899C89281B390B3C872B87ED84FE8442
:101680000F851889AD88BE88CF88D88CEA14FB04F2
:101690000C051D0540F4EE0CFF1C001F111F21500E
:1016A00030403C872B8720E030E040E050E080E095
:1016B00090E0A0E0B0E460E070E0EA14FB040C0508
:1016C0001D0540F0282B392B4A2B5B2BEA18FB0811
:1016D0000C091D09B695A79597958795EE0CFF1CEB
:1016E000001F111F6F5F7F4F6F31710531F7DA01F6
:1016F000C9018F779070A070B07080349105A105FA
:10170000B10561F427FD0AC0E114F10401051105DA
:1017100029F0205C3F4F4F4F5F4F20782D873E8749
:101720004F87588BBE01675F7F4FCB010E94A60D8C
:101730006896EAE00C94D80FA8E1B0E0E2EAFBE09A
:101740000C94C00F69837A838B839C832D833E83A3
:101750004F83588789E0E82EF12CEC0EFD1ECE0158
:101760000196B7010E947B0E8E010F5E1F4FCE01C6
:101770000596B8010E947B0E8985823040F08989E8
:10178000823028F0C701B8010E94F30E01C08FEF2C
:101790006896E6E00C94DC0FA8E1B0E0E2EDFBE037
:1017A0000C94C00F69837A838B839C832D833E8343
:1017B0004F83588789E0E82EF12CEC0EFD1ECE01F8
:1017C0000196B7010E947B0E8E010F5E1F4FCE0166
:1017D0000596B8010E947B0E8985823040F0898988
:1017E000823028F0C701B8010E94F30E01C08FEFCC
:1017F0006896E6E00C94DC0FA8E1B0E0E2E0FCE0E3
:101800000C94C00F69837A838B839C832D833E83E2
:101810004F83588789E0E82EF12CEC0EFD1ECE0197
:101820000196B7010E947B0E8E010F5E1F4FCE0105
:101830000596B8010E947B0E8985823040F0898927
:10184000823028F0C701B8010E94F30E01C081E088
:101850006896E6E00C94DC0FA8E0B0E0E2E3FCE080
:101860000C94BD0F9B01AC0183E08983DA01C901AF
:101870008827B7FD83959927AA27BB27B82E21155E
:1018800031054105510519F482E089833AC0882366
:10189000A9F0203080E0380780E0480780E858074A
:1018A00029F460E070E080E09FEC30C0EE24FF247B
:1018B0008701E21AF30A040B150B02C079018A01B1
:1018C0008EE1C82ED12CDC82CB82ED82FE820F838A
:1018D0001887C801B7010E94570D019718161906FD
:1018E00084F4082E04C0EE0CFF1C001F111F0A9484
:1018F000D2F7ED82FE820F831887C81AD90ADC82DC
:10190000CB82BA82CE0101960E94A60D2896E9E00C
:101910000C94D90FACE0B0E0E0E9FCE00C94C40F0B
:1019200069837A838B839C83CE010196BE016B5FB2
:101930007F4F0E947B0E8D81823061F1823050F1A9
:10194000843021F48E81882351F12EC02F81388577
:1019500037FD20C06E812F3131051CF06623F9F070
:1019600023C08EE190E0821B930B29853A854B853D
:101970005C8504C056954795379527958A95D2F78B
:101980006623B1F050954095309521953F4F4F4FCC
:101990005F4F0EC020E030E040E050E009C02FEF84
:1019A0003FEF4FEF5FE704C020E030E040E050E859
:1019B000B901CA012C96E2E00C94E00FA8E0B0E077
:1019C000E4EEFCE00C94BC0F7B018C016115710509
:1019D0008105910519F482E0898360C083E08983E1
:1019E0008EE1C82ED12CDC82CB82ED82FE820F8369
:1019F0001887C801B7010E94570DFC013197F7FF06
:101A00003BC0222733272E1B3F0B57016801022EB4
:101A100004C0D694C794B794A7940A94D2F740E030
:101A200050E060E070E081E090E0A0E0B0E004C051
:101A3000880F991FAA1FBB1F2A95D2F70197A109EA
:101A4000B1098E219F21A023B1230097A105B105E3
:101A500021F041E050E060E070E04A295B296C2908
:101A60007D294D835E836F8378878EE190E08E1BA6
:101A70009F0B9C838B8312C0309781F00E2E04C085
:101A8000EE0CFF1C001F111F0A94D2F7ED82FE829C
:101A90000F831887CE1ADF0ADC82CB821A82CE012E
:101AA00001960E94A60D2896EAE00C94D80FEF92BA
:101AB000FF920F931F937B018C0180E0E81680E07A
:101AC000F80681E0080780E0180788F48FEFE81631
:101AD000F1040105110531F028F088E090E0A0E064
:101AE000B0E017C080E090E0A0E0B0E012C080E07D
:101AF000E81680E0F80680E0080781E0180728F083
:101B000088E190E0A0E0B0E004C080E190E0A0E0D7
:101B1000B0E020E230E040E050E0281B390B4A0BF7
:101B20005B0B04C016950795F794E7948A95D2F756
:101B3000F701E75DFC4F8081281B310941095109FC
:101B4000C9011F910F91FF90EF900895DF92EF92DE
:101B5000FF920F931F93FC01E480F58006811781AB
:101B6000D1808081823048F480E090E0A0E1B0E054
:101B7000E82AF92A0A2B1B2BA5C0843009F49FC040
:101B8000823021F4EE24FF24870105C0E114F10422
:101B90000105110519F4E0E0F0E096C0628173815F
:101BA0009FEF623879070CF05BC022E83FEF261BFD
:101BB000370B2A3131052CF020E030E040E050E0D6
:101BC0002AC0B801A701022E04C0769567955795E3
:101BD00047950A94D2F781E090E0A0E0B0E004C01D
:101BE000880F991FAA1FBB1F2A95D2F70197A10939
:101BF000B1098E219F21A023B1230097A105B10532
:101C000021F081E090E0A0E0B0E09A01AB01282B48
:101C1000392B4A2B5B2BDA01C9018F779070A070AA
:101C2000B07080349105A105B10539F427FF09C0D2
:101C3000205C3F4F4F4F5F4F04C0215C3F4F4F4FE1
:101C40005F4FE0E0F0E02030A0E03A07A0E04A0774
:101C5000A0E45A0710F0E1E0F0E079018A0127C022
:101C60006038710564F5FB01E158FF4FD801C701E9
:101C70008F779070A070B07080349105A105B10588
:101C800039F4E7FE0DC080E490E0A0E0B0E004C0CD
:101C90008FE390E0A0E0B0E0E80EF91E0A1F1B1FE2
:101CA00017FF05C016950795F794E794319687E0DE
:101CB00016950795F794E7948A95D1F705C0EE2419
:101CC000FF248701EFEFF0E06E2F67956627679599
:101CD000902F9F77D794DD24D7948E2F8695492F08
:101CE000462B582F5D29B701CA011F910F91FF9014
:101CF000EF90DF900895FC01DB014081518122814A
:101D0000622F6F7770E0221F2227221F9381892F75
:101D1000880F822B282F30E0991F9927991F119641
:101D20009C93119721153105A9F5411551056105C0
:101D3000710511F482E037C082E89FEF13969C93FF
:101D40008E9312979A01AB0167E0220F331F441F55
:101D5000551F6A95D1F783E08C930DC0220F331F76
:101D6000441F551F12968D919C91139701971396BE
:101D70009C938E931297203080E0380780E04807CC
:101D800080E4580758F314962D933D934D935C933C
:101D9000179708952F3F310579F4411551056105D5
:101DA000710519F484E08C93089564FF03C081E009
:101DB0008C9312C01C9210C02F57304013963C9346
:101DC0002E93129783E08C9387E0440F551F661F74
:101DD000771F8A95D1F7706414964D935D936D9338
:101DE0007C93179708951F93DC01FB019C9192301F
:101DF00008F447C08081823008F443C0943051F425
:101E000011961C91843099F58181682F70E0611BD7
:101E100071093FC0843021F0923031F48230B9F141
:101E20008181882389F12DC011961C9111978230F0
:101E3000F1F081811817D9F412962D913C911397E6
:101E4000828193818217930794F028173907BCF099
:101E500014968D919D910D90BC91A02D248135817A
:101E600046815781281739074A075B0718F4112361
:101E700041F00AC082179307A407B50740F4112365
:101E800019F061E070E005C06FEF7FEF02C060E025
:101E900070E0CB011F910895629FD001739FF00104
:101EA000829FE00DF11D649FE00DF11D929FF00DEA
:101EB000839FF00D749FF00D659FF00D9927729F21
:101EC000B00DE11DF91F639FB00DE11DF91FBD01AC
:101ED000CF011124089597FB092E07260AD077FD1C
:101EE00004D02ED006D000201AF4709561957F4F53
:101EF0000895F6F7909581959F4F0895A1E21A2EC7
:101F0000AA1BBB1BFD010DC0AA1FBB1FEE1FFF1F9D
:101F1000A217B307E407F50720F0A21BB30BE40BED
:101F2000F50B661F771F881F991F1A9469F7609534
:101F30007095809590959B01AC01BD01CF010895EE
:101F4000AA1BBB1B51E107C0AA1FBB1FA617B707DF
:101F500010F0A61BB70B881F991F5A95A9F78095FB
:101F60009095BC01CD0108952F923F924F925F92C0
:101F70006F927F928F929F92AF92BF92CF92DF9299
:101F8000EF92FF920F931F93CF93DF93CDB7DEB7FE
:101F9000CA1BDB0B0FB6F894DEBF0FBECDBF099492
:101FA0002A88398848885F846E847D848C849B84E9
:101FB000AA84B984C884DF80EE80FD800C811B81F7
:101FC000AA81B981CE0FD11D0FB6F894DEBF0FBE26
:101FD000CDBFED010895EF92FF920F931F93F22F63
:101FE000F02E47FD02C0E4E001C0E4E1242F3327D6
:101FF00027FD309537FF03C0309521953F4F4F2D7A
:10200000512F0F2FEE2E0E940C108F2D912F1F910C
:102010000F91FF90EF900895A9E0B0E0E2E1F0E1C8
:102020000C94B80F6A01122FA02EBE2C2BE32017A0
:1020300018F42CE3922E02C0902E9394AE014F5FC1
:102040005F4F27E0092D0E946E11BC018981E82EA7
:10205000FF24C70189709070019711F4ADE209C0A7
:10206000B1FE02C0ABE205C0B0FC02C0A0E001C0FE
:10207000A0E2E3FE3BC0AA2311F423E001C024E068
:10208000211710F020E002C0121B212FEB2CB4FE10
:1020900002C0322F0AC0F601322F80E202C08193C3
:1020A00031503323E1F7C20ED11CAA2319F0F601F7
:1020B000A1936F01F6013196E2FE05C09EE4D601C0
:1020C0009C9381E404C09EE6D6019C9381E6119620
:1020D0008C9391833296DF01832F90E202C09D930F
:1020E00081508823E1F7E30FF11D40C0E2FE42C0BA
:1020F000AA2311F423E001C024E0211710F020E00E
:1021000002C0121B212FEB2CB4FE02C0922F0AC07A
:10211000F601922F80E202C0819391509923E1F75A
:10212000C20ED11CAA2319F0F601A1936F01F6018A
:102130003196E2FE08C089E4D6018C938EE41196B4
:102140008C9386E407C089E6D6018C938EE61196BF
:102150008C9386E681833296DF01892F20E202C0CC
:102160002D9381508823E1F7E90FF11D10822EEFA6
:102170003FEFAFC0161617061CF041E050E003C059
:10218000AB014F5F5F4FAA2019F480E090E003C0DD
:102190008A2D90E0019620E030E0AA2311F021E0A2
:1021A00030E0240F351F280F391F812F90E02817AA
:1021B000390714F020E002C0121B212F4B2D50E0F4
:1021C000CA0180719070B4FC0DC0B3FC0BC0F60165
:1021D000322F40E202C0419331503323E1F7C20E67
:1021E000D11C01C0322FAA2319F0F601A1936F016F
:1021F000892B11F0132F0AC0F601132F80E302C0C0
:10220000819311501123E1F7C30ED11C092D060F44
:10221000BA8090E1892E912C8E209F20E4FE04C08C
:10222000F1E3BF1609F40150101614F001E003C0E9
:10223000093008F008E09B0177FF02C020E030E0A1
:10224000CB010196821B930BFE013196E80FF91F1B
:102250008EE2F82E3B01601A71088A2D90E0442727
:102260005527481B590B8FEF2F3F380719F4D6011C
:10227000FD926D01621773072CF06216730614F459
:10228000808101C080E3215030403196241735070A
:1022900024F0D6018D936D01E6CF2617370749F458
:1022A000B5E3BB1528F0BB1621F48114910409F4A1
:1022B00081E3F6018193D601812F90E202C09C93C5
:1022C000815011968823D9F7E10FF11D108220E08B
:1022D00030E0C9012996EEE00C94D40F283008F0C4
:1022E00027E03327DA01990F311D87FD91600096B1
:1022F0006105710539F432602E5F3D9330E32A9514
:10230000E1F708959F3F30F080387105610509F0CD
:102310003C5F3C5F3D93913008F08068911DDF93F6
:10232000CF931F930F93FF92EF92192F987F96955B
:10233000E92F96959695E90FFF27EE53FF4F9927C2
:102340003327EE24FF24A701E701059008940794A2
:1023500028F4360FE71EF81E491F511D660F771F20
:10236000881F991F0694A1F70590079428F4E70E9B
:10237000F81E491F561FC11D770F881F991F661F22
:102380000694A1F70590079428F4F80E491F561FEC
:10239000C71FD11D880F991F661F771F0694A1F7CD
:1023A0000590079420F4490F561FC71FD81F990F97
:1023B000661F771F881F0694A9F7849110951770E0
:1023C00041F0D695C79557954795F794E7941A9598
:1023D000C1F7E8E6F0E068941590159135916591A4
:1023E000959105907FE27395E118F10A430B560B26
:1023F000C90BD009C0F7E10CF11E431F561FC91FBE
:10240000D01D7EF4703311F48A95E6CFE894015024
:1024100030F0080F0AF40027021708F4202F239544
:10242000022F7A3328F079E37D932A95E9F710C0DB
:102430007D932A9589F60694979567953795179514
:102440001794E118F10A430B560BC90BD00998F009
:1024500023957E9173957A3308F070E37C93201373
:10246000B8F77E9170617D9330F0839571E37D9331
:1024700070E32A95E1F71124EF90FF900F911F91DF
:10248000CF91DF91992787FD90950895F894FFCF1C
:102490005461726765742052616E6765203D20004B
:1024A00020636D202F0020696E636800546172679D
:1024B00065742052616E67652028636D293A20009B
:1024C0005461726765742052616E67652028696E79
:1024D0006368293A2000000000000000002F00007F
:1024E0000007000700147F147F14242A7F2A122378
:1024F0001308646236495522500005030000001C91
:102500002241000041221C0014083E081408083E25
:1025100008080000A06000080808080800606000C3
:102520000020100804023E5149453E00427F400011
:1025300042615149462141454B311814127F102701
:10254000454545393C4A4949300171090503364939
:10255000494936064949291E0036360000005636DC
:102560000000081422410014141414140041221411
:10257000080201510906324959513E7C1211127C60
:102580007F494949363E414141227F4141221C7FDA
:10259000494949417F090909013E4149497A7F0872
:1025A00008087F00417F41002040413F017F08141F
:1025B00022417F404040407F020C027F7F04081090
:1025C0007F3E4141413E7F090909063E4151215E5E
:1025D0007F09192946464949493101017F01013FD7
:1025E0004040403F1F2040201F3F4038403F631481
:1025F00008146307087008076151494543007F418B
:10260000410055AA55AA550041417F00040201022C
:1026100004404040404000030500002054545478DA
:102620007F484444383844444420384444487F3840
:1026300054545418087E09010218A4A4A47C7F08ED
:1026400004047800447D40004080847D007F102891
:10265000440000417F40007C041804787C08040496
:10266000783844444438FC2424241818242418FCC2
:102670007C080404084854545420043F4440203C3F
:102680004040207C1C2040201C3C4030403C4428E2
:102690001028441CA0A0A07C4464544C4400107C2E
:1026A00082000000FF000000827C10000006090983
:1026B0000600000000000000000001020203030306
:1026C00003040404040404040405050505050505C4
:1026D00005050505050505050506060606060606A3
:1026E000060606060606060606060606060606068A
:1026F0000606060606060606060707070707070773
:102700000707070707070707070707070707070759
:102710000707070707070707070707070707070749
:102720000707070707070707070707070707070739
:102730000707070707070707070808080808080822
:102740000808080808080808080808080808080809
:1027500008080808080808080808080808080808F9
:1027600008080808080808080808080808080808E9
:1027700008080808080808080808080808080808D9
:1027800008080808080808080808080808080808C9
:1027900008080808080808080808080808080808B9
:1027A00008080808080808080808080808080808A9
:0A27B00008080808080808080800D7
:00000001FF
