:100000000C94B1000C94C6000C94C6000C94C6006D
:100010000C94C6000C94C6000C94C6000C94C60048
:100020000C94C6000C94C6000C94C6000C94C60038
:100030000C94C6000C94C6000C94C6000C94C60028
:100040000C94C6000C94C6000C94C6000C94C60018
:100050000C94C6000C94C6000C94C6000C94C60008
:100060000C94C6000C94C60000407A10F35A00A00D
:10007000724E18090010A5D4E80000E87648170071
:1000800000E40B54020000CA9A3B000000E1F505B1
:10009000000080969800000040420F000000A086FB
:1000A00001000000102700000000E803000000002D
:1000B0006400000000000A000000000001000000D1
:1000C00000002C76D888DC674F0823DFC1DFAE59EB
:1000D000E1B1B796E5E3E453C63AE651997696E87E
:1000E000E6C28426EB898C9B62ED407C6FFCEFBC02
:1000F0009C9F40F2BAA56FA5F490055A2AF75C932D
:100100006B6CF9676DC11BFCE0E40D47FEF520E662
:10011000B500D0ED902E0300943577050080841E45
:10012000080000204E0A000000C80C333333330FA0
:10013000986E12831141EF8D2114893BE65516CF3D
:10014000FEE6DB18D1844B381BF77C1D901DA4BB49
:10015000E424203284725E228100C9F124ECA1E5FE
:100160003D2711241FBECFEFD8E0DEBFCDBF12E088
:10017000A0E0B1E0E6E5F8E102C005900D92A432FE
:10018000B107D9F70E943E020C94290C0C94000090
:1001900088E08093C10086E08093C20087E6809368
:1001A000C4000895982F8091C00085FFFCCF9093E4
:1001B000C600089583EA84BD95E095BD83E28093EF
:1001C000B0009093B10016BC08952F923F924F92C9
:1001D0005F926F927F928F929F92AF92BF92CF92D7
:1001E000DF92EF92FF920F931F93DF93CF93CDB7E0
:1001F000DEB72A970FB6F894DEBF0FBECDBF2C0135
:100200009A8389831C821B821E821D8241E0642E98
:10021000712C8824992422243324CB01AA2797FD0A
:10022000A095BA2F8F839887A987BA8794C0F401C5
:10023000EE0FFF1FA1E0B0E0AC0FBD1FEA0FFB1FE8
:100240008081918197FF0BC0118210820894811CDC
:10025000911CB3E08B16910414F088249924F301C7
:10026000EE0FFF1F81E090E08C0F9D1FE80FF91F3C
:1002700080819181481659065CF45182408208942D
:10028000611C711C93E06916710411F466247724D3
:100290008D8187BD8B8188BD89818093B400F401F5
:1002A000EE0FFF1FA1E0B0E0AC0FBD1FEA0FFB1F78
:1002B00080819181029791838083F301EE0FFF1F6C
:1002C000EA0FFB1F808191810296918380836F8169
:1002D000788589859A850E94C9065B016C0120E0BA
:1002E00030E04AE755E40E9493047B018C0120E052
:1002F00030E040E85FE30E94990688231CF461E047
:1003000070E023C0C801B70120E03FEF4FE757E49A
:100310000E9439061816ACF4C601B50120E030E0A1
:1003200040E251E40E9493040E94BD0206C080E9AD
:1003300091E00197F1F76150704061157105B9F7CF
:1003400007C0C801B7010E94BD02CB010197F1F7B8
:100350000894211C311C241435040CF468CF2A960F
:100360000FB6F894DEBF0FBECDBFCF91DF911F91C6
:100370000F91FF90EF90DF90CF90BF90AF909F9044
:100380008F907F906F905F904F903F902F90089547
:100390009C01DC010D900020E9F71197A81BB90B17
:1003A00090E00AC0E20FF31F40818091C00085FFFA
:1003B000FCCF4093C6009F5FE92FF0E0EA17FB07F0
:1003C00088F30895AF92BF92CF92DF92EF92FF929F
:1003D0000F931F93DF93CF93CDB7DEB72A970FB656
:1003E000F894DEBF0FBECDBF5B016C0180E091E0F1
:1003F0000E94C801C601B50143E020E07E010894D7
:10040000E11CF11C87010E94CE09C7010E94C801AE
:1004100080E191E00E94C801C601B5012CE53FE8EA
:1004200042E250E40E948D0543E020E00E94CE09A4
:10043000C7010E94C80186E191E00E94C801809135
:10044000C00085FFFCCF8DE08093C6008091C00086
:1004500085FFFCCF8AE08093C6002A960FB6F894F9
:10046000DEBF0FBECDBFCF91DF911F910F91FF90E7
:10047000EF90DF90CF90BF90AF900895BF92CF9252
:10048000DF92EF92FF920F931F9388E08093C10059
:1004900086E08093C20087E68093C40083EA84BD2F
:1004A00095E095BD83E28093B0009093B10016BCB7
:1004B00082E084B988E68AB9299855E3B52E16BC3E
:1004C000299A8B2D8A95F1F72998189BFECF86B52E
:1004D0001899FECF66B5861790F4681B70E08827E0
:1004E00077FD8095982F0E94C90624E43BE84CE8EC
:1004F0005FE30E9493046B017C010E94E201C7014B
:10050000B60120E030E040EA50E40E9499068823DA
:100510005CF40F2EF0E0CF2EF0E0DF2EF0EAEF2EAD
:10052000F0E4FF2EF02D14C0C701B60120E030E04A
:1005300048E453E40E943906181654F40F2EF0E0F4
:10054000CF2EF0E0DF2EF8E4EF2EF3E4FF2EF02DB7
:1005500060E070E088E493E4A70196010E9435040E
:100560000E9427078B019C0188EC90E0B8010E9453
:100570007009C8010E94E500A2CFEF92FF920F938D
:100580001F937B018C0120E030E040E05FE40E949B
:10059000690688238CF0C801B70120E030E040E014
:1005A0005FE40E9435040E9427079B01AC012050A4
:1005B00030404040504806C0C801B7010E9427079C
:1005C0009B01AC01B901CA011F910F91FF90EF90FF
:1005D0000895A0E0B0E0EFEEF2E00C949709DC01A2
:1005E0002B01FA019C91923008F439C1EB0188810A
:1005F000823008F433C1943069F4843009F02FC19B
:1006000011969C9111978981981709F428C1ACE142
:10061000B1E025C1843009F421C18230A9F49230BF
:1006200009F01DC19A01AD0188E0EA010990AE010F
:10063000E90109929E018150C1F7E2018981119679
:100640009C918923818308C1923009F407C11296D5
:100650002D903C901397EB018A819B811496AD906D
:10066000BD90CD90DC901797EC80FD800E811F81AE
:100670009101281B390BB90137FF04C06627772782
:10068000621B730B603271050CF061C01216130609
:100690006CF537014801062E04C096948794779430
:1006A00067940A94D2F721E030E040E050E004C0C3
:1006B000220F331F441F551F6A95D2F72150304037
:1006C000404050402E213F21402351232115310528
:1006D0004105510521F021E030E040E050E0790192
:1006E0008A01E628F728082919293CC0232BD1F1D3
:1006F000260E371E35014601062E04C096948794B7
:10070000779467940A94D2F721E030E040E050E01B
:1007100004C0220F331F441F551F6A95D2F7215082
:100720003040404050402A213B214C215D21211581
:1007300031054105510521F021E030E040E050E075
:1007400059016A01A628B728C828D9280BC08215E4
:1007500093052CF01C01AA24BB24650103C0EE24E0
:10076000FF24870111969C91D20111968C919817C4
:1007700009F445C0992339F0A80197012A193B09CA
:100780004C095D0906C0A60195012E193F09400BD1
:10079000510B57FD08C01182338222822483358396
:1007A000468357831DC081E081833382228288275C
:1007B0009927DC01821B930BA40BB50B84839583D3
:1007C000A683B7830DC0220F331F441F551F2483F8
:1007D00035834683578382819381019793838283F4
:1007E0002481358146815781DA01C9010197A10928
:1007F000B1098F5F9F4FAF4FBF4328F30BC0918369
:1008000033822282EA0CFB1C0C1D1D1DE482F58242
:100810000683178383E08083248135814681578155
:1008200057FF1AC0C901AA2797FDA095BA2F81705A
:100830009070A070B0705695479537952795822B8C
:10084000932BA42BB52B84839583A683B7838281B6
:100850009381019693838283DF0101C0D201CD0190
:10086000CDB7DEB7E2E10C94B309A0E2B0E0EBE370
:10087000F4E00C94A30969837A838B839C832D8392
:100880003E834F835887E9E0EE2EF12CEC0EFD1EDF
:10089000CE010196B7010E949F088E010F5E1F4F87
:1008A000CE010596B8010E949F088A8991E08927A8
:1008B0008A8BC701B801AE01475E5F4F0E94E90213
:1008C0000E94CA07A096E6E00C94BF09A0E2B0E03F
:1008D000ECE6F4E00C94A30969837A838B839C8310
:1008E0002D833E834F835887F9E0EF2EF12CEC0ED9
:1008F000FD1ECE010196B7010E949F088E010F5E7A
:100900001F4FCE010596B8010E949F08C701B8018C
:10091000AE01475E5F4F0E94E9020E94CA07A0969F
:10092000E6E00C94BF09A0E2B0E0E9E9F4E00C9441
:10093000970969837A838B839C832D833E834F83BE
:100940005887CE010196BE01675F7F4F0E949F08C6
:10095000CE010596BE016F5E7F4F0E949F0899856C
:10096000923088F089898230C8F0943019F482304E
:1009700051F404C0843029F4923081F48CE191E088
:10098000C6C0923049F420E09A858A89981321E004
:100990002A87CE010996BBC0823049F420E09A85AF
:1009A0008A89981321E02A8BCE014196B0C02D840C
:1009B0003E844F8458886D887E888F88988CEE247A
:1009C000FF248701AA24BB24650140E050E060E0D9
:1009D00070E0E0E0F0E0C10181709070892BE9F0F7
:1009E000E60CF71C081D191D9A01AB012A0D3B1DD1
:1009F0004C1D5D1D80E090E0A0E0B0E0E614F7043F
:100A00000805190520F481E090E0A0E0B0E0BA010B
:100A1000A901480F591F6A1F7B1FAA0CBB1CCC1CC5
:100A2000DD1C97FE08C081E090E0A0E0B0E0A82ABD
:100A3000B92ACA2ADB2A3196E032F10549F0660C60
:100A4000771C881C991C5694479437942794C3CFDD
:100A5000FA85EA892B893C898B859C85280F391F6B
:100A60002E5F3F4F17C0CA0181709070892B61F0D3
:100A700016950795F794E79480E090E0A0E0B0E841
:100A8000E82AF92A0A2B1B2B7695679557954795E7
:100A90002F5F3F4F77FDE7CF0CC0440F551F661FF8
:100AA000771F17FD4160EE0CFF1C001F111F215026
:100AB0003040403090E0590790E0690790E47907B2
:100AC00060F32B8F3C8FDB01CA018F779070A07091
:100AD000B07080349105A105B10561F447FD0AC0ED
:100AE000E114F1040105110529F0405C5F4F6F4FDF
:100AF0007F4F40781A8EFE1711F081E08A8F4D8F5C
:100B00005E8F6F8F78A383E0898FCE0149960E9414
:100B1000CA07A096E2E10C94B309A8E1B0E0E3E9CA
:100B2000F5E00C949F0969837A838B839C832D83E2
:100B30003E834F835887B9E0EB2EF12CEC0EFD1E5F
:100B4000CE010196B7010E949F088E010F5E1F4FD4
:100B5000CE010596B8010E949F082985223008F42D
:100B60007EC03989323010F4B8017CC08A859A89F8
:100B700089278A87243011F0223031F4231709F0B5
:100B80006EC06CE171E06EC0343039F41D861E8693
:100B90001F86188A1C861B8604C0323021F484E02C
:100BA0008987B7015FC02B853C858B899C89281B71
:100BB000390B3C872B87ED84FE840F851889AD881F
:100BC000BE88CF88D88CEA14FB040C051D0540F4C0
:100BD000EE0CFF1C001F111F215030403C872B875B
:100BE00020E030E040E050E080E090E0A0E0B0E4C1
:100BF00060E070E0EA14FB040C051D0540F0282BB2
:100C0000392B4A2B5B2BEA18FB080C091D09B695FA
:100C1000A79597958795EE0CFF1C001F111F6F5F1E
:100C20007F4F6F31710531F7DA01C9018F7790700D
:100C3000A070B07080349105A105B10561F427FD65
:100C40000AC0E114F1040105110529F0205C3F4FB1
:100C50004F4F5F4F20782D873E874F87588BBE01BF
:100C6000675F7F4FCB010E94CA076896EAE00C9449
:100C7000BB09A8E1B0E0EFE3F6E00C94A3096983B7
:100C80007A838B839C832D833E834F83588789E0AF
:100C9000E82EF12CEC0EFD1ECE010196B7010E944C
:100CA0009F088E010F5E1F4FCE010596B8010E946E
:100CB0009F088985823040F08989823028F0C701F9
:100CC000B8010E94170901C08FEF6896E6E00C9406
:100CD000BF09A8E1B0E0EFE6F6E00C94A309698350
:100CE0007A838B839C832D833E834F83588789E04F
:100CF000E82EF12CEC0EFD1ECE010196B7010E94EC
:100D00009F088E010F5E1F4FCE010596B8010E940D
:100D10009F088985823040F08989823028F0C70198
:100D2000B8010E94170901C08FEF6896E6E00C94A5
:100D3000BF09A8E1B0E0EFE9F6E00C94A3096983EC
:100D40007A838B839C832D833E834F83588789E0EE
:100D5000E82EF12CEC0EFD1ECE010196B7010E948B
:100D60009F088E010F5E1F4FCE010596B8010E94AD
:100D70009F088985823040F08989823028F0C70138
:100D8000B8010E94170901C081E06896E6E00C9462
:100D9000BF09A8E0B0E0EFECF6E00C94A0099B01DD
:100DA000AC0183E08983DA01C9018827B7FD839507
:100DB0009927AA27BB27B82E2115310541055105D2
:100DC00019F482E089833AC08823A9F0203080E0BA
:100DD000380780E0480780E8580729F460E070E0B1
:100DE00080E09FEC30C0EE24FF248701E21AF30A72
:100DF000040B150B02C079018A018EE1C82ED12C9B
:100E0000DC82CB82ED82FE820F831887C801B70196
:100E10000E947B0701971816190684F4082E04C057
:100E2000EE0CFF1C001F111F0A94D2F7ED82FE8208
:100E30000F831887C81AD90ADC82CB82BA82CE0106
:100E400001960E94CA072896E9E00C94BC09ACE020
:100E5000B0E0EDE2F7E00C94A70969837A838B8315
:100E60009C83CE010196BE016B5F7F4F0E949F085D
:100E70008D81823061F1823050F1843021F48E8195
:100E8000882351F12EC02F81388537FD20C06E8117
:100E90002F3131051CF06623F9F023C08EE190E07C
:100EA000821B930B29853A854B855C8504C056953A
:100EB0004795379527958A95D2F76623B1F05095D7
:100EC0004095309521953F4F4F4F5F4F0EC020E02A
:100ED00030E040E050E009C02FEF3FEF4FEF5FE719
:100EE00004C020E030E040E050E8B901CA012C968F
:100EF000E2E00C94C309EF92FF920F931F937B01E2
:100F00008C0180E0E81680E0F80681E0080780E0C8
:100F1000180788F48FEFE816F1040105110531F088
:100F200028F088E090E0A0E0B0E017C080E090E01A
:100F3000A0E0B0E012C080E0E81680E0F80680E0B3
:100F4000080781E0180728F088E190E0A0E0B0E011
:100F500004C080E190E0A0E0B0E020E230E040E0BA
:100F600050E0281B390B4A0B5B0B04C01695079504
:100F7000F794E7948A95D2F7F701EC5DFE4F8081F4
:100F8000281B310941095109C9011F910F91FF9097
:100F9000EF900895DF92EF92FF920F931F93FC0161
:100FA000E480F58006811781D1808081823048F409
:100FB00080E090E0A0E1B0E0E82AF92A0A2B1B2BA0
:100FC000A5C0843009F49FC0823021F4EE24FF24B0
:100FD000870105C0E114F1040105110519F4E0E0F1
:100FE000F0E096C0628173819FEF623879070CF060
:100FF0005BC022E83FEF261B370B2A3131052CF06E
:1010000020E030E040E050E02AC0B801A701022E05
:1010100004C076956795579547950A94D2F781E075
:1010200090E0A0E0B0E004C0880F991FAA1FBB1F8A
:101030002A95D2F70197A109B1098E219F21A023FA
:10104000B1230097A105B10521F081E090E0A0E077
:10105000B0E09A01AB01282B392B4A2B5B2BDA012C
:10106000C9018F779070A070B07080349105A10590
:10107000B10539F427FF09C0205C3F4F4F4F5F4F48
:1010800004C0215C3F4F4F4F5F4FE0E0F0E0203065
:10109000A0E03A07A0E04A07A0E45A0710F0E1E018
:1010A000F0E079018A0127C06038710564F5FB0121
:1010B000E158FF4FD801C7018F779070A070B070D2
:1010C00080349105A105B10539F4E7FE0DC080E437
:1010D00090E0A0E0B0E004C08FE390E0A0E0B0E0DA
:1010E000E80EF91E0A1F1B1F17FF05C0169507956E
:1010F000F794E794319687E016950795F794E7946F
:101100008A95D1F705C0EE24FF248701EFEFF0E0C8
:101110006E2F679566276795902F9F77D794DD246C
:10112000D7948E2F8695492F462B582F5D29B701CE
:10113000CA011F910F91FF90EF90DF900895FC017D
:10114000DB01408151812281622F6F7770E0221F85
:101150002227221F9381892F880F822B282F30E08E
:10116000991F9927991F11969C9311972115310565
:10117000A9F5411551056105710511F482E037C0EB
:1011800082E89FEF13969C938E9312979A01AB017E
:1011900067E0220F331F441F551F6A95D1F783E084
:1011A0008C930DC0220F331F441F551F12968D9133
:1011B0009C911397019713969C938E9312972030CE
:1011C00080E0380780E0480780E4580758F3149619
:1011D0002D933D934D935C93179708952F3F3105C1
:1011E00079F4411551056105710519F484E08C937A
:1011F000089564FF03C081E08C9312C01C9210C05C
:101200002F57304013963C932E93129783E08C9384
:1012100087E0440F551F661F771F8A95D1F77064CA
:1012200014964D935D936D937C93179708951F9338
:10123000DC01FB019C91923008F447C08081823030
:1012400008F443C0943051F411961C91843099F500
:101250008181682F70E0611B71093FC0843021F0EB
:10126000923031F48230B9F18181882389F12DC027
:1012700011961C9111978230F1F081811817D9F4E1
:1012800012962D913C911397828193818217930737
:1012900094F028173907BCF014968D919D910D900C
:1012A000BC91A02D248135814681578128173907AB
:1012B0004A075B0718F4112341F00AC0821793070D
:1012C000A407B50740F4112319F061E070E005C0F0
:1012D0006FEF7FEF02C060E070E0CB011F910895D7
:1012E00097FB092E07260AD077FD04D00CD006D034
:1012F00000201AF4709561957F4F0895F6F7909548
:1013000081959F4F0895AA1BBB1B51E107C0AA1FDF
:10131000BB1FA617B70710F0A61BB70B881F991F96
:101320005A95A9F780959095BC01CD0108952F920B
:101330003F924F925F926F927F928F929F92AF9265
:10134000BF92CF92DF92EF92FF920F931F93CF93B2
:10135000DF93CDB7DEB7CA1BDB0B0FB6F894DEBF49
:101360000FBECDBF09942A88398848885F846E846F
:101370007D848C849B84AA84B984C884DF80EE80B9
:10138000FD800C811B81AA81B981CE0FD11D0FB6C2
:10139000F894DEBF0FBECDBFED010895EF92FF922E
:1013A0000F931F93F22FF02E47FD02C0E4E001C01F
:1013B000E4E1242F332727FD309537FF03C0309514
:1013C00021953F4F4F2D512F0F2FEE2E0E94EF09E9
:1013D0008F2D912F1F910F91FF90EF900895A9E00D
:1013E000B0E0E5EFF9E00C949B096A01122FA02E02
:1013F000BE2C2BE3201718F42CE3922E02C0902E63
:101400009394AE014F5F5F4F27E0092D0E94510B6F
:10141000BC018981E82EFF24C70189709070019773
:1014200011F4ADE209C0B1FE02C0ABE205C0B0FCF0
:1014300002C0A0E001C0A0E2E3FE3BC0AA2311F479
:1014400023E001C024E0211710F020E002C0121BAD
:10145000212FEB2CB4FE02C0322F0AC0F601322F2E
:1014600080E202C0819331503323E1F7C20ED11CD8
:10147000AA2319F0F601A1936F01F6013196E2FE5D
:1014800005C09EE4D6019C9381E404C09EE6D6018B
:101490009C9381E611968C9391833296DF01832F82
:1014A00090E202C09D9381508823E1F7E30FF11D84
:1014B00040C0E2FE42C0AA2311F423E001C024E0B0
:1014C000211710F020E002C0121B212FEB2CB4FEDC
:1014D00002C0922F0AC0F601922F80E202C08193CF
:1014E00091509923E1F7C20ED11CAA2319F0F601FD
:1014F000A1936F01F6013196E2FE08C089E4D6019E
:101500008C938EE411968C9386E407C089E6D6010D
:101510008C938EE611968C9386E681833296DF015A
:10152000892F20E202C02D9381508823E1F7E90F33
:10153000F11D10822EEF3FEFAFC0161617061CF0FC
:1015400041E050E003C0AB014F5F5F4FAA2019F4A8
:1015500080E090E003C08A2D90E0019620E030E02A
:10156000AA2311F021E030E0240F351F280F391F86
:10157000812F90E02817390714F020E002C0121BD9
:10158000212F4B2D50E0CA0180719070B4FC0DC02A
:10159000B3FC0BC0F601322F40E202C04193315040
:1015A0003323E1F7C20ED11C01C0322FAA2319F058
:1015B000F601A1936F01892B11F0132F0AC0F601D8
:1015C000132F80E302C0819311501123E1F7C30E62
:1015D000D11C092D060FBA8090E1892E912C8E2006
:1015E0009F20E4FE04C0F1E3BF1609F40150101679
:1015F00014F001E003C0093008F008E09B0177FF18
:1016000002C020E030E0CB010196821B930BFE016B
:101610003196E80FF91F8EE2F82E3B01601A71082F
:101620008A2D90E044275527481B590B8FEF2F3FF9
:10163000380719F4D601FD926D01621773072CF07B
:101640006216730614F4808101C080E3215030409B
:1016500031962417350724F0D6018D936D01E6CF1E
:101660002617370749F4B5E3BB1528F0BB1621F45C
:101670008114910409F481E3F6018193D601812F4D
:1016800090E202C09C93815011968823D9F7E10F14
:10169000F11D108220E030E0C9012996EEE00C94A3
:1016A000B709283008F027E03327DA01990F311DF8
:1016B00087FD916000966105710539F432602E5FF7
:1016C0003D9330E32A95E1F708959F3F30F080384D
:1016D0007105610509F03C5F3C5F3D93913008F076
:1016E0008068911DDF93CF931F930F93FF92EF922A
:1016F000192F987F9695E92F96959695E90FFF27D4
:10170000EE53FF4F99273327EE24FF24A701E7016B
:1017100005900894079428F4360FE71EF81E491F19
:10172000511D660F771F881F991F0694A1F705901A
:10173000079428F4E70EF81E491F561FC11D770FA6
:10174000881F991F661F0694A1F70590079428F437
:10175000F80E491F561FC71FD11D880F991F661FFE
:10176000771F0694A1F70590079420F4490F561FA0
:10177000C71FD81F990F661F771F881F0694A9F7E8
:1017800084911095177041F0D695C7955795479558
:10179000F794E7941A95C1F7E8E6F0E0689415909D
:1017A000159135916591959105907FE27395E118BA
:1017B000F10A430B560BC90BD009C0F7E10CF11E1F
:1017C000431F561FC91FD01D7EF4703311F48A9534
:1017D000E6CFE894015030F0080F0AF40027021712
:1017E00008F4202F2395022F7A3328F079E37D9394
:1017F0002A95E9F710C07D932A9589F60694979566
:101800006795379517951794E118F10A430B560B16
:10181000C90BD00998F023957E9173957A3308F01F
:1018200070E37C932013B8F77E9170617D9330F064
:10183000839571E37D9370E32A95E1F71124EF908E
:10184000FF900F911F91CF91DF91992787FD909580
:061850000895F894FFCF9B
:101856005461726765742052616E6765203D200091
:1018660020636D202F0020696E6368000000000071
:101876000000000000010202030303030404040441
:101886000404040405050505050505050505050506
:1018960005050505060606060606060606060606E6
:1018A60006060606060606060606060606060606D2
:1018B60006060606070707070707070707070707B6
:1018C60007070707070707070707070707070707A2
:1018D6000707070707070707070707070707070792
:1018E6000707070707070707070707070707070782
:1018F6000707070708080808080808080808080866
:101906000808080808080808080808080808080851
:101916000808080808080808080808080808080841
:101926000808080808080808080808080808080831
:101936000808080808080808080808080808080821
:101946000808080808080808080808080808080811
:101956000808080808080808080808080808080801
:1019660008080808080808080808080808080808F1
:04197600080808084D
:00000001FF
