:100000000C94B1000C94CE000C94CE000C94CE0055
:100010000C94CE000C94CE000C94CE000C94CE0028
:100020000C94CE000C94CE000C94CE000C94CE0018
:100030000C94CE000C94CE000C94CE000C94CE0008
:100040000C94CE000C94CE000C94CE000C94CE00F8
:100050000C94CE000C94CE000C94CE000C94CE00E8
:100060000C94CE000C94CE0000407A10F35A00A0FD
:10007000724E18090010A5D4E80000E87648170071
:1000800000E40B54020000CA9A3B000000E1F505B1
:10009000000080969800000040420F000000A086FB
:1000A00001000000102700000000E803000000002D
:1000B0006400000000000A000000000001000000D1
:1000C00000002C76D888DC674F0823DFC1DFAE59EB
:1000D000E1B1B796E5E3E453C63AE651997696E87E
:1000E000E6C28426EB898C9B62ED407C6FFCEFBC02
:1000F0009C9F40F2BAA56FA5F490055A2AF75C932D
:100100006B6CF9676DC11BFCE0E40D47FEF520E662
:10011000B500D0ED902E0300943577050080841E45
:10012000080000204E0A000000C80C333333330FA0
:10013000986E12831141EF8D2114893BE65516CF3D
:10014000FEE6DB18D1844B381BF77C1D901DA4BB49
:10015000E424203284725E228100C9F124ECA1E5FE
:100160003D2711241FBECFEFD8E0DEBFCDBF14E086
:10017000A0E0B1E0E6ECF1E202C005900D92AE30F5
:10018000B107D9F714E0AEE0B4E001C01D92A1318F
:10019000B107E1F70E94ED000C94E1100C9400000F
:1001A00083EA84BD85E085BD16BC089590E29093F6
:1001B000B0006093B1008093B200089587BD88BD00
:1001C000089590E29093B00095E09093B10093E889
:1001D0009093B2008093B40008956F927F928F92B3
:1001E0009F92AF92BF92CF92DF92EF92FF920F93C6
:1001F0001F93DF93CF93CDB7DEB72A970FB6F8944E
:10020000DEBF0FBECDBF83EA84BD85E085BD16BCD1
:100210000E94EF0582E084B988E68AB929980F2EFA
:10022000F0E0CF2EF0E0DF2EF0E0EF2EF0E0FF2E3A
:10023000F02D35E3632E20E2722E95E0892E83E8BF
:10024000982E5E010894A11CB11C16BC299A862D1B
:100250008A95F1F72998189BFECF86B51899FECF9D
:1002600066B5861780F4681B70E0882777FD809557
:10027000982F0E94EE0A24E43BE84CE85FE30E94DA
:10028000B8086B017C01C701B60120E030E040EA0C
:1002900050E40E94BE0A88235CF40F2EF0E0CF2EBB
:1002A000F0E0DF2EF0EAEF2EF0E4FF2EF02D14C088
:1002B000C701B60120E030E048E453E40E945E0A42
:1002C000181654F40F2EF0E0CF2EF0E0DF2EF8E4F5
:1002D000EF2EF3E4FF2EF02D60E070E088E493E46D
:1002E000A70196010E945A080E944C0B67BD68BD89
:1002F0007092B0008092B1009092B200C701B60136
:1003000020E030E040EA51EC0E94B80820E030E004
:100310004AE755E40E948B080E944C0B882777FD22
:100320008095982F0E94EE0A0E944C0B6093B400B7
:1003300080E00E94E50380E091E00E94490381E0B3
:100340000E94E503C701B6014DEF20E085010E9440
:10035000860EC5010E94490383E00E94E50384E103
:1003600091E00E94490384E00E94E503C701B601C1
:100370002CE53FE842E250E40E94B2094DEF20E054
:100380000E94860EC5010E9449035FCF0E948D0620
:1003900008950E94D80608951F93182F80E00E94A8
:1003A0004B06812F0E9464061F9108951F93182FFA
:1003B0008CE30E94CC0180E00E948D06812F0E9478
:1003C0008D060E94D8061F9108951F93182F81E86B
:1003D0000E94D601812F0E94D6011F91089586EABE
:1003E0000E94D601089587EA0E94D60108950F93CE
:1003F0001F93082F162F8830F0F467FD1CC08093E0
:100400000F046093100481E20E94D601812F0E94A4
:10041000D6018FE70E94D60182E20E94D601802F8A
:100420000E94D60187E00E94D6018CE30E94CC0195
:1004300080E40E948D061F910F91089580910F0412
:100440008F5F877080930F0460E00E94F70108952A
:100450000F931F93CF93DF93182F8091100490E098
:100460008B37910514F41A3021F40E941E021A30C1
:1004700041F1812F805225E0829F80011124065D89
:100480001E4F90E00196EC01CC0FDD1FCC0FDD1F5D
:10049000C80FD91FC65DDE4FF80181918F010E9400
:1004A0008D06809110048F5F809310040C171D0738
:1004B00099F780E00E948D06809110048F5F8093F1
:1004C0001004DF91CF911F910F9108954F925F9289
:1004D0006F927F928F929F92AF92BF92CF92DF9254
:1004E000EF92FF920F931F93DF93CF93CDB7DEB7B9
:1004F0002C970FB6F894DEBF0FBECDBF5A016B012B
:10050000E22E823021F51EC020E08E2D90E0019772
:10051000A80102C0440F551F8A95E2F7CA01AA2715
:1005200097FDA095BA2F8A219B21AC21BD21009770
:10053000A105B10509F021E0822F805D0E9428020B
:10054000EA9402C001E010E0EE20F1F653C041153C
:1005500051056105710551F010E02E010894411C10
:10056000511C682E77248824992433C000E004C0ED
:1005700080E30E9428020F5F0E15E0F50A30C1F7F4
:1005800039C0A114B104C104D104D9F0FA2CC601B8
:10059000B501A40193010E942D0EC901DA015C018D
:1005A0006D01C201810F911D9C878B87C601B5012A
:1005B000A40193010E940E0EF61AEB85FC85F082D1
:1005C00007C0FAE0FE15A0F0F201E10FF11D108264
:1005D0001F5F1E15B0F20CC0FE01E10FF11D8081FE
:1005E0008A3010F0895C01C0805D0E9428021150A1
:1005F000112391F72C960FB6F894DEBF0FBECDBF36
:10060000CF91DF911F910F91FF90EF90DF90CF90EE
:10061000BF90AF909F908F907F906F905F904F9022
:100620000895AF92BF92CF92DF92EF92FF920F9315
:100630001F935B016C010E94E2067B018C018AE042
:10064000B801A7012FEF0E9466028EE20E942802E5
:10065000C801B7010E94A00B9B01AC01C601B50106
:100660000E945A0820E034E244E759E40E94B808A6
:100670000E94E206AB01BC018AE02FEF0E946602F5
:100680001F910F91FF90EF90DF90CF90BF90AF90B0
:100690000895CF93DF93EC0103C021960E942802B6
:1006A00088818823D1F7DF91CF910895FF920F932E
:1006B0001F93F62E853030F594E6961718F1082F23
:1006C000000F0F5F802F60E00E94F70110E004C070
:1006D0008FEF0E948D061F5F1F15D0F31F2D04C0E2
:1006E00080E00E948D061F5F1436D0F3802F69E6EC
:1006F0000E94F7014F2D50E060E070E08AE023E0B7
:100700000E9466021F910F91FF900895CF92DF9291
:10071000EF92FF920F931F93062F853008F04EC083
:10072000653608F04BC0182F1295110F107E185F18
:1007300080E0612F0E94F701402F50E060E070E000
:100740008AE023E00E946602402F4695242F2695DA
:100750002695269567E0E62EE21A822F90E053E078
:10076000880F991F5A95E1F7481B28E030E0241BB9
:1007700031098FEF90E002C0880F991F2A95E2F7A8
:10078000C82EFF24F39434E0D32ED10E8F2D6D2D7F
:100790000E94F701FE1410F400E005C0FE1411F0F1
:1007A0000FEF01C00C2D10E0802F0E948D061F5FFF
:1007B0001C30D1F7F39488E0F81641F71F910F91A0
:1007C000FF90EF90DF90CF900895883028F48093C9
:1007D0000F0460E00E94F70108953F924F925F92EC
:1007E0006F927F928F929F92AF92BF92CF92DF9241
:1007F000EF92FF920F931F93CF93DF93B82E4B018D
:1008000087E08B1508F4BB24CC24B5E03B2EA5E390
:10081000AA2EF0E94F2EF1E05F2E44C0E6E0EE2E66
:1008200039018B2D6E2D0E94F701FE2CDD2425C091
:100830008052839D80011124065D1E4F90E0019639
:10084000EC01CC0FDD1FCC0FDD1FC80FD91FC65D1B
:10085000DE4F09C0F80181918F010E948D06F3944B
:100860000C171D0711F0F7FEF5CF80E00E948D06F2
:100870008A2D8A95F1F7F394D394F401ED0DF11DCF
:10088000E60DF71D8081882311F0F7FED1CF88ECAB
:1008900090E0F2013197F1F70197D9F7EA9409F066
:1008A000C0CFC3942C2D30E0F401E20FF31F808100
:1008B000882309F0B3CFDF91CF911F910F91FF9063
:1008C000EF90DF90CF90BF90AF909F908F907F90F0
:1008D0006F905F904F903F9008950F931F93CF9329
:1008E000DF938C0180E060E00E94F7018CE30E94BE
:1008F000CC0180E40E948D06C0E0D0E0F801EC0F4E
:10090000FD1F80810E948D06219684E0C030D807AB
:10091000A9F7DF91CF911F910F910895CF93DF93A6
:1009200081E20E94D60180E00E94D6018FE70E94FA
:10093000D60182E20E94D60180E00E94D60187E0C3
:100940000E94D6018CE30E94CC0180E40E948D06B7
:10095000C0E0D0E080E00E948D06219684E0C030A7
:10096000D807C1F781E20E94D60180E00E94D6013B
:100970008FE70E94D60182E20E94D60180E00E94A9
:10098000D60187E00E94D6018CE30E94CC0180E46E
:100990000E948D06DF91CF9108958F929F92AF9222
:1009A000BF92CF92DF92EF92FF920F931F93DF934C
:1009B000CF93CDB7DEB731E1E32EF12CEC0EFD1E67
:1009C0008F8598899C0159012AE0C22EF6C0853294
:1009D00009F0EEC00894A11CB11CF5019081892F8B
:1009E00080538A3018F0DD24DA940FC0DD2409C06A
:1009F000DC9CD02C1124D80E0894A11CB11CF5014C
:100A00009081892F80538A3098F3983509F48BC0F0
:100A10009935C4F4943409F44BC095344CF49234B1
:100A200009F49DC093342CF5953209F0C3C0BFC0C2
:100A3000933509F4B2C0953509F462C0963409F0D3
:100A4000B9C0A0C0963609F49DC0973644F49336D9
:100A500081F09436B1F0923609F0ACC071C0953790
:100A600009F445C0983709F455C0933709F0A2C07E
:100A700094C087010E5F1F4FF70180810E942802FA
:100A800094C092E0892E912C8E0C9F1CF70100815E
:100A9000118117FF06C0109501951F4F8DE20E942E
:100AA0002802A801662757FD6095762F8AE01AC0B4
:100AB00084E0882E912C8E0C9F1CF701E080F18041
:100AC0000281138117FF0BC010950095F094E094FC
:100AD000E11CF11C011D111D8DE20E9428028AE01B
:100AE000B801A7012D2D0E946602740163C0870121
:100AF0000E5F1F4FF7014081518160E070E008C038
:100B000087010C5F1F4FF701408151816281738122
:100B10008AE012C087010E5F1F4FF70140815181AB
:100B200060E070E008C087010C5F1F4FF701408153
:100B300051816281738180E12D2D0E94660235C052
:100B4000F70140815181FFEFDF1611F400E1D02E53
:100B500082E090E0E80EF91E60E070E00EC0F70160
:100B60004081518162817381FFEFDF1611F410E142
:100B7000D12E84E090E0E80EF91E82E02D2D0E9437
:100B8000660218C087010C5F1F4FF70160817181F9
:100B9000828193810E94110308C087010E5F1F4F5D
:100BA000F701808191810E944903780103C085E2A9
:100BB0000E9428020894A11CB11CF50180818823A1
:100BC00009F005CFCF91DF911F910F91FF90EF902A
:100BD000DF90CF90BF90AF909F908F9008950E942C
:100BE0003F068EEA0E94D60185ED0E94D60180E87C
:100BF0000E94D60188EA0E94D6018FE30E94D601A6
:100C000083ED0E94D60180E00E94D60180E40E941C
:100C1000D6018DE80E94D60184E10E94D60180E2CF
:100C20000E94D60180E00E94D60181EA0E94D6018E
:100C300088EC0E94D6018AED0E94D60182E10E94D2
:100C4000D60181E80E94D6018FEC0E94D60189ED81
:100C50000E94D60181EF0E94D6018BED0E94D60141
:100C600080E40E94D60184EA0E94D60186EA0E94AE
:100C7000D6018FEA0E94D6010E948E040895E9EB06
:100C8000F0E080818260808380818E7F808383E139
:100C90008093B800089580930E048091BC00846A0C
:100CA0008093BC008091BC0087FFFCCF8091B9008D
:100CB00090E0887F90708830910521F0409711F086
:100CC0008EEF08958FEF089590910E04880F892B71
:100CD0008093BB008091BC008F7D8093BC0080918D
:100CE000BC0080688093BC008091BC0087FFFCCF73
:100CF000992331F48091B900887F883151F40BC079
:100D0000913011F080E008958091B900887F80349F
:100D100011F08EEF08958FEF08958093BB008091BE
:100D2000BC0080688093BC008091BC0087FFFCCF32
:100D30008091B900887F883211F08EEF08958FEF8F
:100D4000089592E306C08091BC0087FF02C08DEF3A
:100D500008959150C0F78CEF0895882321F4809175
:100D6000BC00806403C08091BC008F7B8093BC007A
:100D70008091BC0080688093BC0092E304C08091A5
:100D8000BC0087FD02C09150D0F78091B90090E07F
:100D9000887F90708035910529F08835910529F07C
:100DA0008EEF08958091BB0008958091BB00089557
:100DB0008091BC0080698093BC008091BC0084FF5E
:100DC000FCCF0895EF92FF920F931F937B018C014C
:100DD00020E030E040E05FE40E948E0A88238CF03F
:100DE000C801B70120E030E040E05FE40E945A080B
:100DF0000E944C0B9B01AC012050304040405048B9
:100E000006C0C801B7010E944C0B9B01AC01B9019F
:100E1000CA011F910F91FF90EF900895A0E0B0E0FC
:100E2000E4E1F7E00C944F0EDC012B01FA019C91F8
:100E3000923008F439C1EB018881823008F433C163
:100E4000943069F4843009F02FC111969C91119768
:100E50008981981709F428C1A5E0B3E025C1843041
:100E600009F421C18230A9F4923009F01DC19A0120
:100E7000AD0188E0EA010990AE01E90109929E0105
:100E80008150C1F7E201898111969C918923818368
:100E900008C1923009F407C112962D903C90139727
:100EA000EB018A819B811496AD90BD90CD90DC9032
:100EB0001797EC80FD800E811F819101281B390B53
:100EC000B90137FF04C066277727621B730B6032B6
:100ED00071050CF061C0121613066CF5370148015C
:100EE000062E04C096948794779467940A94D2F758
:100EF00021E030E040E050E004C0220F331F441FE7
:100F0000551F6A95D2F721503040404050402E2165
:100F10003F2140235123211531054105510521F081
:100F200021E030E040E050E079018A01E628F7282E
:100F3000082919293CC0232BD1F1260E371E350173
:100F40004601062E04C096948794779467940A9479
:100F5000D2F721E030E040E050E004C0220F331F20
:100F6000441F551F6A95D2F72150304040405040F1
:100F70002A213B214C215D212115310541055105D7
:100F800021F021E030E040E050E059016A01A6285C
:100F9000B728C828D9280BC0821593052CF01C014E
:100FA000AA24BB24650103C0EE24FF248701119607
:100FB0009C91D20111968C91981709F445C0992300
:100FC00039F0A80197012A193B094C095D0906C0AF
:100FD000A60195012E193F09400B510B57FD08C082
:100FE00011823382228224833583468357831DC036
:100FF00081E081833382228288279927DC01821B4A
:10100000930BA40BB50B84839583A683B7830DC084
:10101000220F331F441F551F248335834683578374
:1010200082819381019793838283248135814681D4
:101030005781DA01C9010197A109B1098F5F9F4F5B
:10104000AF4FBF4328F30BC0918333822282EA0C57
:10105000FB1C0C1D1D1DE482F5820683178383E0B3
:101060008083248135814681578157FF1AC0C90189
:10107000AA2797FDA095BA2F81709070A070B070CC
:101080005695479537952795822B932BA42BB52BF7
:1010900084839583A683B78382819381019693830A
:1010A0008283DF0101C0D201CD01CDB7DEB7E2E11D
:1010B0000C946B0EA0E2B0E0E0E6F8E00C945B0E5E
:1010C00069837A838B839C832D833E834F835887E8
:1010D000E9E0EE2EF12CEC0EFD1ECE010196B701DB
:1010E0000E943D0D8E010F5E1F4FCE010596B80187
:1010F0000E943D0D8A8991E089278A8BC701B8013A
:10110000AE01475E5F4F0E940E070E94680CA096DA
:10111000E6E00C94770EA0E2B0E0E1E9F8E00C9490
:101120005B0E69837A838B839C832D833E834F83FD
:101130005887F9E0EF2EF12CEC0EFD1ECE01019642
:10114000B7010E943D0D8E010F5E1F4FCE01059627
:10115000B8010E943D0DC701B801AE01475E5F4F67
:101160000E940E070E94680CA096E6E00C94770E91
:10117000A0E2B0E0EEEBF8E00C944F0E69837A83C6
:101180008B839C832D833E834F835887CE010196AA
:10119000BE01675F7F4F0E943D0DCE010596BE01E7
:1011A0006F5E7F4F0E943D0D9985923088F089894E
:1011B0008230C8F0943019F4823051F404C0843085
:1011C00029F4923081F485E093E0C6C0923049F46E
:1011D00020E09A858A89981321E02A87CE01099612
:1011E000BBC0823049F420E09A858A89981321E0B7
:1011F0002A8BCE014196B0C02D843E844F845888FE
:101200006D887E888F88988CEE24FF248701AA241D
:10121000BB24650140E050E060E070E0E0E0F0E019
:10122000C10181709070892BE9F0E60CF71C081D54
:10123000191D9A01AB012A0D3B1D4C1D5D1D80E05F
:1012400090E0A0E0B0E0E614F7040805190520F4EA
:1012500081E090E0A0E0B0E0BA01A901480F591F79
:101260006A1F7B1FAA0CBB1CCC1CDD1C97FE08C090
:1012700081E090E0A0E0B0E0A82AB92ACA2ADB2ADF
:101280003196E032F10549F0660C771C881C991CF8
:101290005694479437942794C3CFFA85EA892B89CB
:1012A0003C898B859C85280F391F2E5F3F4F17C0C7
:1012B000CA0181709070892B61F016950795F7949B
:1012C000E79480E090E0A0E0B0E8E82AF92A0A2B51
:1012D0001B2B76956795579547952F5F3F4F77FD69
:1012E000E7CF0CC0440F551F661F771F17FD4160E5
:1012F000EE0CFF1C001F111F21503040403090E0C9
:10130000590790E0690790E4790760F32B8F3C8FD1
:10131000DB01CA018F779070A070B07080349105A6
:10132000A105B10561F447FD0AC0E114F10401050E
:10133000110529F0405C5F4F6F4F7F4F40781A8E48
:10134000FE1711F081E08A8F4D8F5E8F6F8F78A32B
:1013500083E0898FCE0149960E94680CA096E2E155
:101360000C946B0EA8E1B0E0E8EBF9E00C94570E9A
:1013700069837A838B839C832D833E834F83588735
:10138000B9E0EB2EF12CEC0EFD1ECE010196B7015B
:101390000E943D0D8E010F5E1F4FCE010596B801D4
:1013A0000E943D0D2985223008F47EC039893230F3
:1013B00010F4B8017CC08A859A8989278A872430ED
:1013C00011F0223031F4231709F06EC065E073E0AC
:1013D0006EC0343039F41D861E861F86188A1C861E
:1013E0001B8604C0323021F484E08987B7015FC0D6
:1013F0002B853C858B899C89281B390B3C872B8747
:10140000ED84FE840F851889AD88BE88CF88D88C7E
:10141000EA14FB040C051D0540F4EE0CFF1C001F34
:10142000111F215030403C872B8720E030E040E006
:1014300050E080E090E0A0E0B0E460E070E0EA140A
:10144000FB040C051D0540F0282B392B4A2B5B2B88
:10145000EA18FB080C091D09B695A795979587957D
:10146000EE0CFF1C001F111F6F5F7F4F6F31710566
:1014700031F7DA01C9018F779070A070B0708034B5
:101480009105A105B10561F427FD0AC0E114F1043D
:101490000105110529F0205C3F4F4F4F5F4F207829
:1014A0002D873E874F87588BBE01675F7F4FCB01EB
:1014B0000E94680C6896EAE00C94730EA8E1B0E014
:1014C000E4E6FAE00C945B0E69837A838B839C8359
:1014D0002D833E834F83588789E0E82EF12CEC0E54
:1014E000FD1ECE010196B7010E943D0D8E010F5EDB
:1014F0001F4FCE010596B8010E943D0D89858230AF
:1015000040F08989823028F0C701B8010E94B50DEA
:1015100001C08FEF6896E6E00C94770EA8E1B0E08A
:10152000E4E9FAE00C945B0E69837A838B839C83F5
:101530002D833E834F83588789E0E82EF12CEC0EF3
:10154000FD1ECE010196B7010E943D0D8E010F5E7A
:101550001F4FCE010596B8010E943D0D898582304E
:1015600040F08989823028F0C701B8010E94B50D8A
:1015700001C08FEF6896E6E00C94770EA8E1B0E02A
:10158000E4ECFAE00C945B0E69837A838B839C8392
:101590002D833E834F83588789E0E82EF12CEC0E93
:1015A000FD1ECE010196B7010E943D0D8E010F5E1A
:1015B0001F4FCE010596B8010E943D0D89858230EE
:1015C00040F08989823028F0C701B8010E94B50D2A
:1015D00001C081E06896E6E00C94770EA8E0B0E0E8
:1015E000E4EFFAE00C94580E9B01AC0183E0898390
:1015F000DA01C9018827B7FD83959927AA27BB2758
:10160000B82E211531054105510519F482E0898371
:101610003AC08823A9F0203080E0380780E04807EE
:1016200080E8580729F460E070E080E09FEC30C06B
:10163000EE24FF248701E21AF30A040B150B02C003
:1016400079018A018EE1C82ED12CDC82CB82ED8219
:10165000FE820F831887C801B7010E94190C0197F9
:101660001816190684F4082E04C0EE0CFF1C001F87
:10167000111F0A94D2F7ED82FE820F831887C81AD1
:10168000D90ADC82CB82BA82CE0101960E94680C14
:101690002896E9E00C94740EACE0B0E0E2E5FBE0E3
:1016A0000C945F0E69837A838B839C83CE010196B1
:1016B000BE016B5F7F4F0E943D0D8D81823061F1D5
:1016C000823050F1843021F48E81882351F12EC074
:1016D0002F81388537FD20C06E812F3131051CF0F8
:1016E0006623F9F023C08EE190E0821B930B2985DD
:1016F0003A854B855C8504C0569547953795279567
:101700008A95D2F76623B1F0509540953095219592
:101710003F4F4F4F5F4F0EC020E030E040E050E0C1
:1017200009C02FEF3FEF4FEF5FE704C020E030E04C
:1017300040E050E8B901CA012C96E2E00C947B0E1F
:10174000A8E0B0E0E6EAFBE00C94570E7B018C01C8
:10175000611571058105910519F482E0898360C0E6
:1017600083E089838EE1C82ED12CDC82CB82ED828E
:10177000FE820F831887C801B7010E94190CFC0173
:101780003197F7FF3BC0222733272E1B3F0B570112
:101790006801022E04C0D694C794B794A7940A9403
:1017A000D2F740E050E060E070E081E090E0A0E03F
:1017B000B0E004C0880F991FAA1FBB1F2A95D2F75B
:1017C0000197A109B1098E219F21A023B123009780
:1017D000A105B10521F041E050E060E070E04A2948
:1017E0005B296C297D294D835E836F8378878EE129
:1017F00090E08E1B9F0B9C838B8312C0309781F0EF
:101800000E2E04C0EE0CFF1C001F111F0A94D2F70D
:10181000ED82FE820F831887CE1ADF0ADC82CB822C
:101820001A82CE0101960E94680C2896EAE00C9478
:10183000730EEF92FF920F931F937B018C0180E058
:10184000E81680E0F80681E0080780E0180788F4D1
:101850008FEFE816F1040105110531F028F088E05A
:1018600090E0A0E0B0E017C080E090E0A0E0B0E041
:1018700012C080E0E81680E0F80680E0080781E00A
:10188000180728F088E190E0A0E0B0E004C080E113
:1018900090E0A0E0B0E020E230E040E050E0281B23
:1018A000390B4A0B5B0B04C016950795F794E79428
:1018B0008A95D2F7F701E35FFC4F8081281B31093D
:1018C00041095109C9011F910F91FF90EF900895AF
:1018D000DF92EF92FF920F931F93FC01E480F5805B
:1018E00006811781D1808081823048F480E090E0C9
:1018F000A0E1B0E0E82AF92A0A2B1B2BA5C084300E
:1019000009F49FC0823021F4EE24FF24870105C032
:10191000E114F1040105110519F4E0E0F0E096C0CE
:10192000628173819FEF623879070CF05BC022E817
:101930003FEF261B370B2A3131052CF020E030E039
:1019400040E050E02AC0B801A701022E04C07695FD
:101950006795579547950A94D2F781E090E0A0E00B
:10196000B0E004C0880F991FAA1FBB1F2A95D2F7A9
:101970000197A109B1098E219F21A023B1230097CE
:10198000A105B10521F081E090E0A0E0B0E09A016E
:10199000AB01282B392B4A2B5B2BDA01C9018F773E
:1019A0009070A070B07080349105A105B10539F434
:1019B00027FF09C0205C3F4F4F4F5F4F04C0215CA1
:1019C0003F4F4F4F5F4FE0E0F0E02030A0E03A079C
:1019D000A0E04A07A0E45A0710F0E1E0F0E0790146
:1019E0008A0127C06038710564F5FB01E158FF4F9B
:1019F000D801C7018F779070A070B07080349105C6
:101A0000A105B10539F4E7FE0DC080E490E0A0E047
:101A1000B0E004C08FE390E0A0E0B0E0E80EF91E73
:101A20000A1F1B1F17FF05C016950795F794E7942B
:101A3000319687E016950795F794E7948A95D1F744
:101A400005C0EE24FF248701EFEFF0E06E2F6795CD
:101A500066276795902F9F77D794DD24D7948E2F94
:101A60008695492F462B582F5D29B701CA011F9132
:101A70000F91FF90EF90DF900895FC01DB01408112
:101A800051812281622F6F7770E0221F2227221F4F
:101A90009381892F880F822B282F30E0991F992757
:101AA000991F11969C93119721153105A9F54115A0
:101AB00051056105710511F482E037C082E89FEF9E
:101AC00013969C938E9312979A01AB0167E0220FB5
:101AD000331F441F551F6A95D1F783E08C930DC0C7
:101AE000220F331F441F551F12968D919C911397FF
:101AF000019713969C938E931297203080E03807BD
:101B000080E0480780E4580758F314962D933D93DE
:101B10004D935C93179708952F3F310579F4411544
:101B200051056105710519F484E08C93089564FFF3
:101B300003C081E08C9312C01C9210C02F5730401C
:101B400013963C932E93129783E08C9387E0440F77
:101B5000551F661F771F8A95D1F7706414964D93B1
:101B60005D936D937C93179708951F93DC01FB01A0
:101B70009C91923008F447C08081823008F443C0C1
:101B8000943051F411961C91843099F58181682F1D
:101B900070E0611B71093FC0843021F0923031F454
:101BA0008230B9F18181882389F12DC011961C9171
:101BB00011978230F1F081811817D9F412962D9186
:101BC0003C911397828193818217930794F0281791
:101BD0003907BCF014968D919D910D90BC91A02D6C
:101BE0002481358146815781281739074A075B07C9
:101BF00018F4112341F00AC082179307A407B50710
:101C000040F4112319F061E070E005C06FEF7FEF41
:101C100002C060E070E0CB011F910895629FD00187
:101C2000739FF001829FE00DF11D649FE00DF11D97
:101C3000929FF00D839FF00D749FF00D659FF00D46
:101C40009927729FB00DE11DF91F639FB00DE11D33
:101C5000F91FBD01CF0111240895A1E21A2EAA1B7C
:101C6000BB1BFD010DC0AA1FBB1FEE1FFF1FA2174C
:101C7000B307E407F50720F0A21BB30BE40BF50B49
:101C8000661F771F881F991F1A9469F760957095D2
:101C9000809590959B01AC01BD01CF0108952F92D5
:101CA0003F924F925F926F927F928F929F92AF92EC
:101CB000BF92CF92DF92EF92FF920F931F93CF9339
:101CC000DF93CDB7DEB7CA1BDB0B0FB6F894DEBFD0
:101CD0000FBECDBF09942A88398848885F846E84F6
:101CE0007D848C849B84AA84B984C884DF80EE8040
:101CF000FD800C811B81AA81B981CE0FD11D0FB649
:101D0000F894DEBF0FBECDBFED010895EF92FF92B4
:101D10000F931F93F22FF02E47FD02C0E4E001C0A5
:101D2000E4E1242F332727FD309537FF03C030959A
:101D300021953F4F4F2D512F0F2FEE2E0E94A70EB2
:101D40008F2D912F1F910F91FF90EF900895A9E093
:101D5000B0E0EDEAFEE00C94530E6A01122FA02EC3
:101D6000BE2C2BE3201718F42CE3922E02C0902EE9
:101D70009394AE014F5F5F4F27E0092D0E94091039
:101D8000BC018981E82EFF24C701897090700197FA
:101D900011F4ADE209C0B1FE02C0ABE205C0B0FC77
:101DA00002C0A0E001C0A0E2E3FE3BC0AA2311F400
:101DB00023E001C024E0211710F020E002C0121B34
:101DC000212FEB2CB4FE02C0322F0AC0F601322FB5
:101DD00080E202C0819331503323E1F7C20ED11C5F
:101DE000AA2319F0F601A1936F01F6013196E2FEE4
:101DF00005C09EE4D6019C9381E404C09EE6D60112
:101E00009C9381E611968C9391833296DF01832F08
:101E100090E202C09D9381508823E1F7E30FF11D0A
:101E200040C0E2FE42C0AA2311F423E001C024E036
:101E3000211710F020E002C0121B212FEB2CB4FE62
:101E400002C0922F0AC0F601922F80E202C0819355
:101E500091509923E1F7C20ED11CAA2319F0F60183
:101E6000A1936F01F6013196E2FE08C089E4D60124
:101E70008C938EE411968C9386E407C089E6D60194
:101E80008C938EE611968C9386E681833296DF01E1
:101E9000892F20E202C02D9381508823E1F7E90FBA
:101EA000F11D10822EEF3FEFAFC0161617061CF083
:101EB00041E050E003C0AB014F5F5F4FAA2019F42F
:101EC00080E090E003C08A2D90E0019620E030E0B1
:101ED000AA2311F021E030E0240F351F280F391F0D
:101EE000812F90E02817390714F020E002C0121B60
:101EF000212F4B2D50E0CA0180719070B4FC0DC0B1
:101F0000B3FC0BC0F601322F40E202C041933150C6
:101F10003323E1F7C20ED11C01C0322FAA2319F0DE
:101F2000F601A1936F01892B11F0132F0AC0F6015E
:101F3000132F80E302C0819311501123E1F7C30EE8
:101F4000D11C092D060FBA8090E1892E912C8E208C
:101F50009F20E4FE04C0F1E3BF1609F401501016FF
:101F600014F001E003C0093008F008E09B0177FF9E
:101F700002C020E030E0CB010196821B930BFE01F2
:101F80003196E80FF91F8EE2F82E3B01601A7108B6
:101F90008A2D90E044275527481B590B8FEF2F3F80
:101FA000380719F4D601FD926D01621773072CF002
:101FB0006216730614F4808101C080E32150304022
:101FC00031962417350724F0D6018D936D01E6CFA5
:101FD0002617370749F4B5E3BB1528F0BB1621F4E3
:101FE0008114910409F481E3F6018193D601812FD4
:101FF00090E202C09C93815011968823D9F7E10F9B
:10200000F11D108220E030E0C9012996EEE00C9429
:102010006F0E283008F027E03327DA01990F311DC1
:1020200087FD916000966105710539F432602E5F7D
:102030003D9330E32A95E1F708959F3F30F08038D3
:102040007105610509F03C5F3C5F3D93913008F0FC
:102050008068911DDF93CF931F930F93FF92EF92B0
:10206000192F987F9695E92F96959695E90FFF275A
:10207000EE53FF4F99273327EE24FF24A701E701F2
:1020800005900894079428F4360FE71EF81E491FA0
:10209000511D660F771F881F991F0694A1F70590A1
:1020A000079428F4E70EF81E491F561FC11D770F2D
:1020B000881F991F661F0694A1F70590079428F4BE
:1020C000F80E491F561FC71FD11D880F991F661F85
:1020D000771F0694A1F70590079420F4490F561F27
:1020E000C71FD81F990F661F771F881F0694A9F76F
:1020F00084911095177041F0D695C79557954795DF
:10210000F794E7941A95C1F7E8E6F0E06894159023
:10211000159135916591959105907FE27395E11840
:10212000F10A430B560BC90BD009C0F7E10CF11EA5
:10213000431F561FC91FD01D7EF4703311F48A95BA
:10214000E6CFE894015030F0080F0AF40027021798
:1021500008F4202F2395022F7A3328F079E37D931A
:102160002A95E9F710C07D932A9589F606949795EC
:102170006795379517951794E118F10A430B560B9D
:10218000C90BD00998F023957E9173957A3308F0A6
:1021900070E37C932013B8F77E9170617D9330F0EB
:1021A000839571E37D9370E32A95E1F71124EF9015
:1021B000FF900F911F91CF91DF91992787FD909507
:0621C0000895F894FFCF22
:1021C6005461726765742052616E67652028636D7D
:1021D600293A20005461726765742052616E676502
:1021E6002028696E6368293A20000000000000007C
:1021F600002F00000007000700147F147F14242A14
:102206007F2A1223130864623649552250000503BB
:102216000000001C2241000041221C0014083E0858
:102226001408083E08080000A0600008080808080E
:10223600006060000020100804023E5149453E003F
:10224600427F400042615149462141454B311814B5
:10225600127F1027454545393C4A494930017109E5
:1022660005033649494936064949291E00363600CE
:1022760000005636000008142241001414141414E9
:1022860000412214080201510906324959513E7C87
:102296001211127C7F494949363E414141227F4114
:1022A60041221C7F494949417F090909013E4149AB
:1022B600497A7F0808087F00417F41002040413F5E
:1022C600017F081422417F404040407F020C027F7C
:1022D6007F0408107F3E4141413E7F090909063EC1
:1022E6004151215E7F091929464649494931010173
:1022F6007F01013F4040403F1F2040201F3F4038A4
:10230600403F631408146307087008076151494584
:1023160043007F41410055AA55AA550041417F001F
:102326000402010204404040404000030500002032
:10233600545454787F4844443838444444203844FC
:1023460044487F3854545418087E09010218A4A43E
:10235600A47C7F0804047800447D40004080847D8E
:10236600007F1028440000417F40007C0418047858
:102376007C080404783844444438FC24242418187F
:10238600242418FC7C080404084854545420043FB0
:102396004440203C4040207C1C2040201C3C4030D7
:1023A600403C44281028441CA0A0A07C4464544C03
:1023B6004400107C82000000FF000000827C1000B8
:1023C60000060909060000000000000000000102E6
:1023D60002030303030404040404040404050505BA
:1023E6000505050505050505050505050506060694
:1023F6000606060606060606060606060606060677
:102406000606060606060606060606060607070763
:102416000707070707070707070707070707070746
:102426000707070707070707070707070707070736
:102436000707070707070707070707070707070726
:102446000707070707070707070707070708080813
:1024560008080808080808080808080808080808F6
:1024660008080808080808080808080808080808E6
:1024760008080808080808080808080808080808D6
:1024860008080808080808080808080808080808C6
:1024960008080808080808080808080808080808B6
:1024A60008080808080808080808080808080808A6
:1024B6000808080808080808080808080808080896
:0E24C6000808080808080808080808080800A0
:00000001FF
