:100000000C9434000C943E000C943E000C943E0082
:100010000C943E000C943E000C943E000C943E0068
:100020000C943E000C943E000C943E000C943E0058
:100030000C943E000C943E000C943E000C943E0048
:100040000C943E000C943E000C943E000C943E0038
:100050000C943E000C943E000C943E000C943E0028
:100060000C943E000C943E0011241FBECFEFD8E04C
:10007000DEBFCDBF0E9440000C9451000C940000E4
:100080008FEF8AB984B985B95BE54DEF3DE62BEF7B
:1000900091E787EF5BB945B93BB925B99BB985B9FC
:0600A000F9CFF894FFCF38
:00000001FF
