:100000000C9434000C9449000C9449000C94490061
:100010000C9449000C9449000C9449000C9449003C
:100020000C9449000C9449000C9449000C9449002C
:100030000C9449000C9449000C9449000C9449001C
:100040000C9449000C9449000C9449000C9449000C
:100050000C9449000C9449000C9449000C944900FC
:100060000C9449000C94490011241FBECFEFD8E036
:10007000DEBFCDBF11E0A0E0B1E0E8EDF1E002C0ED
:1000800005900D92AA30B107D9F70E944B000C944D
:10009000EA000C9400009F92AF92BF92CF92DF9241
:1000A000EF92FF920F931F93DF93CF93CDB7DEB7FD
:1000B0002A970FB6F894DEBF0FBECDBFDE011196B2
:1000C000E0E0F1E08AE001900D928150E1F78FEFDE
:1000D0008AB917B88FE084B985B941E7942E39E31E
:1000E000A32E27EFB22E00EA1FE07E010894E11C48
:1000F000F11C9EEFC92E8DEFD82E4BEF1D9904C039
:10010000ABB820ED30E003C09BB828EB32E0B5B8C7
:10011000C8010197F1F7C90164E670E00E94C300CD
:10012000CB016AE070E00E94C300FC01009729F057
:10013000EE0DFF1D80818BB9C5B8C8010197F1F79D
:10014000C9016AE070E00E94C300CB016AE070E080
:100150000E94C300F701E80FF91F80818BB95F9AF5
:10016000D5B8C8010197F1F7C9016AE070E00E94B3
:10017000C300F701E80FF91F80818BB945B9C801A9
:100180000197F1F7BBCF97FB092E07260AD077FD21
:1001900004D00CD006D000201AF4709561957F4FE2
:1001A0000895F6F7909581959F4F0895AA1BBB1B64
:1001B00051E107C0AA1FBB1FA617B70710F0A61B67
:1001C000B70B881F991F5A95A9F780959095BC0188
:0801D000CD010895F894FFCF62
:0A01D8003F065B4F666D7D077F67F1
:00000001FF
