:100000000C9434000C943E000C943E000C943E0082
:100010000C943E000C943E000C943E000C943E0068
:100020000C943E000C943E000C943E000C943E0058
:100030000C943E000C943E000C943E000C943E0048
:100040000C943E000C943E000C943E000C943E0038
:100050000C943E000C943E000C943E000C943E0028
:100060000C943E000C943E0011241FBECFEFD8E04C
:10007000DEBFCDBF0E9481000C94AB000C94000049
:100080005E9A88EE93E020E931E0F9013197F1F7CB
:100090000197D9F75E9888EE93E020E931E0F90105
:1000A0003197F1F70197D9F708955D9A88EE93E0BB
:1000B00020E931E0F9013197F1F70197D9F75D981F
:1000C00088EE93E020E931E0F9013197F1F70197EB
:1000D000D9F708955E9A5D9A88EE93E020E931E0C1
:1000E000F9013197F1F70197D9F75E985D9888EE9D
:1000F00093E020E931E0F9013197F1F70197D9F761
:1001000008951AB8559A569A89B199B1292F30E0B5
:100110002870307099B1492F50E04071507082FFC3
:1001200005C0232B39F4452B29F407C0232B59F0A4
:10013000452B31F05D985E98E7CF0E944000E4CFF8
:100140000E945500E1CF452BF9F20E946A00DCCFF6
:0A0150005D985E980895F894FFCFC3
:00000001FF
