:100000000C9434000C943E000C943E000C943E0082
:100010000C943E000C943E000C943E000C943E0068
:100020000C943E000C943E000C943E000C943E0058
:100030000C943E000C943E000C943E000C943E0048
:100040000C943E000C943E000C943E000C943E0038
:100050000C943E000C943E000C943E000C943E0028
:100060000C943E000C943E0011241FBECFEFD8E04C
:10007000DEBFCDBF0E9440000C9488000C940000AD
:100080001AB8559A569A89B180E090E008955E9A20
:1000900088EE93E020E931E0F9013197F1F701971B
:1000A000D9F75E9888EE93E020E931E0F9013197C5
:1000B000F1F70197D9F708955D9A88EE93E020E96A
:1000C00031E0F9013197F1F70197D9F75D9888EEA2
:1000D00093E020E931E0F9013197F1F70197D9F781
:1000E00008955E9A5D9A88EE93E020E931E0F90187
:1000F0003197F1F70197D9F75E985D9888EE93E014
:1001000020E931E0F9013197F1F70197D9F7089526
:04011000F894FFCF91
:00000001FF
