:100000000C9434000C943E000C943E000C943E0082
:100010000C943E000C943E000C943E000C943E0068
:100020000C943E000C943E000C943E000C943E0058
:100030000C943E000C943E000C943E000C943E0048
:100040000C943E000C943E000C943E000C943E0038
:100050000C943E000C943E000C943E000C943E0028
:100060000C943E000C943E0011241FBECFEFD8E04C
:10007000DEBFCDBF0E946A000C9484000C94000087
:100080005E9A88EE93E020E931E0F9013197F1F7CB
:100090000197D9F75E9888EE93E020E931E0F90105
:1000A0003197F1F70197D9F708955D9A88EE93E0BB
:1000B00020E931E0F9013197F1F70197D9F75D981F
:1000C00088EE93E020E931E0F9013197F1F70197EB
:1000D000D9F70895CF93DF93559A569AC0E0D0E0B0
:1000E000C530D1051CF40E9440000CC0CE0106971B
:1000F000049718F40E94550005C0CB30D10514F0C8
:0C010000C0E0D0E02196ECCFF894FFCFD7
:00000001FF
