:100000000C9434000C943E000C943E000C943E0082
:100010000C943E000C943E000C943E000C943E0068
:100020000C943E000C943E000C943E000C943E0058
:100030000C943E000C943E000C943E000C943E0048
:100040000C943E000C943E000C943E000C943E0038
:100050000C943E000C943E000C943E000C943E0028
:100060000C943E000C943E0011241FBECFEFD8E04C
:10007000DEBFCDBF0E9440000C9473000C940000C2
:100080001AB8569A559A60E971E089B199B1292F49
:1000900030E02870307099B1492F50E040715070B5
:1000A00082FF05C0232B71F4452B31F00BC0232BAD
:1000B00029F0452B31F006C05E9A04C0452B11F0A3
:1000C0005E9A5D9A88EE93E0FB013197F1F7019714
:1000D000D9F75E985D9888EE93E0FB013197F1F7D0
:0A00E0000197D9F7D2CFF894FFCFB3
:00000001FF
