:100000000C9434000C943E000C943E000C943E0082
:100010000C943E000C943E000C943E000C943E0068
:100020000C943E000C943E000C943E000C943E0058
:100030000C943E000C943E000C943E000C943E0048
:100040000C943E000C943E000C943E000C943E0038
:100050000C943E000C943E000C943E000C943E0028
:100060000C943E000C943E0011241FBECFEFD8E04C
:10007000DEBFCDBF0E9440000C9482000C940000B3
:1000800080E284B988E68AB983EA84BD93E095BDAD
:1000900083E28093B0009093B100EAE0B4E174E6AB
:1000A000A8EC6FEFFEEF89B190E029B130E022704B
:1000B0003070AC014170507080FF04C0E7BDB8BD26
:1000C000E093B4002115310521F077BDA8BD7093F0
:1000D000B400452B39F0232B31F367BDF8BD609395
:1000E000B400E1CF232BF9F61BB817BC18BC109253
:1000F000B400D9CF87BD9C01220F331F28BD809348
:08010000B4000895F894FFCF4C
:00000001FF
