:100000000C9434000C943E000C943E000C943E0082
:100010000C943E000C943E000C943E000C943E0068
:100020000C943E000C943E000C943E000C943E0058
:100030000C943E000C943E000C943E000C943E0048
:100040000C943E000C943E000C943E000C943E0038
:100050000C943E000C943E000C943E000C943E0028
:100060000C943E000C943E0011241FBECFEFD8E04C
:10007000DEBFCDBF0E9440000C9463000C940000D2
:1000800080E284B988E68AB9F8E0E8E270E268E4E0
:1000900089B190E029B130E022703070AC0141703C
:1000A000507080FD05C02115310531F4FBB9F0CF4A
:1000B000EBB92115310561F37BB9452B49F3232BAE
:0A00C00039F36BB9E5CFF894FFCFD8
:00000001FF
