:100000000C9434000C943E000C943E000C943E0082
:100010000C943E000C943E000C943E000C943E0068
:100020000C943E000C943E000C943E000C943E0058
:100030000C943E000C943E000C943E000C943E0048
:100040000C943E000C943E000C943E000C943E0038
:100050000C943E000C943E000C943E000C943E0028
:100060000C943E000C943E0011241FBECFEFD8E04C
:10007000DEBFCDBF0E94C0000C94F4000C940000C1
:1000800087BD88BD8093B4000895CF92DF92EF9230
:10009000FF920F931F93DF93CF9300D000D000D037
:1000A000CDB7DEB78C019A8389831C821B821E82A6
:1000B0001D8261E070E040E050E0A0E0B0E07E0131
:1000C0000894E11CF11CE0EACE2EEFE0DE2EFA01EE
:1000D000EE0FFF1FEE0DFF1D8081918197FF09C07C
:1000E000118210824F5F5F4F4330510514F040E0A2
:1000F00050E0FB01EE0FFF1FEE0DFF1D808191818F
:10010000081719074CF4118300836F5F7F4F63302A
:10011000710511F460E070E08D8187BD8B8188BD31
:1001200089818093B400FA01EE0FFF1FEE0DFF1DD1
:1001300080819181019791838083FB01EE0FFF1FE6
:10014000EE0DFF1D20813181C6010197F1F7119657
:1001500081E0A43FB80729F02F5F3F4F3183208310
:10016000B6CF26960FB6F894DEBF0FBECDBFCF91A7
:10017000DF911F910F91FF90EF90DF90CF90089546
:100180001F93CF93DF9380E284B983EA84BD93E029
:1001900095BD83E28093B0009093B100C0E0D0E0C1
:1001A00018E689B190E029B130E022703070AC01DE
:1001B0004170507080FF03C01AB9CAE0D0E0211529
:1001C000310519F01AB9C2E3D0E0452B31F0232BE9
:1001D00039F01AB9CFEFD0E003C0232B09F41AB8D5
:0C01E000CE010E944500DDCFF894FFCF57
:00000001FF
