:100000000C9434000C943E000C943E000C943E0082
:100010000C943E000C943E000C943E000C943E0068
:100020000C943E000C943E000C943E000C943E0058
:100030000C943E000C943E000C943E000C943E0048
:100040000C943E000C943E000C943E000C943E0038
:100050000C943E000C943E000C943E000C943E0028
:100060000C943E000C943E0011241FBECFEFD8E04C
:10007000DEBFCDBF0E9440000C947C000C940000B9
:1000800080E284B988E68AB983EA84BD93E095BDAD
:1000900083E28093B0009093B100EAE074E66FEFE2
:1000A00089B190E029B130E022703070AC0141702C
:1000B000507080FF04C0E7BDE8BDE093B400211597
:1000C000310521F077BD78BD7093B400452B39F030
:1000D000232B31F367BD68BD6093B400E1CF232BC0
:1000E000F9F61BB817BC18BC1092B400D9CF87BD65
:0C00F00088BD8093B4000895F894FFCF01
:00000001FF
